:020000040800F2
:10000000C8070020A9010008791A0008711A000821
:10001000751A000867150008E32A000800000000B0
:10002000000000000000000000000000691F000840
:100030006B15000800000000B11D0008B120000889
:10004000C3010008C3010008C3010008C301000880
:10005000C3010008C3010008C3010008C301000870
:10006000C3010008C3010008C3010008C301000860
:10007000C3010008C3010008C3010008C301000850
:10008000C3010008C3010008C3010008C301000840
:10009000C3010008C3010008C3010008C301000830
:1000A000C3010008C3010008C3010008C301000820
:1000B000552300086D23000885230008C3010008AC
:1000C000C3010008C3010008C3010008C301000800
:1000D000C3010008C1280008C3010008C3010008CB
:1000E000C3010008C3010008C301000800F002F8C2
:1000F00000F04AF80AA090E8000C82448344AAF178
:100100000107DA4501D100F03FF8AFF2090EBAE875
:100110000F0013F0010F18BFFB1A43F0010318473B
:100120009C380000BC380000103A24BF78C878C161
:10013000FAD8520724BF30C830C144BF04680C60ED
:10014000704700000023002400250026103A28BF35
:1001500078C1FBD8520728BF30C148BF0B60704739
:10016000662903F0B483642900F07480002070478E
:100170001FB500F0B1FB04000020002103F04AF895
:10018000E0601FBD10B510BD00F0C2FC1146FFF7C6
:10019000EFFF02F0FFFE00F0E0FC03B4FFF7F2FF18
:1001A00003BC02F0B8FD0000094880470948004739
:1001B000FEE7FEE7FEE7FEE7FEE7FEE7FEE7FEE717
:1001C000FEE7FEE704480549054A064B7047000074
:1001D000B5200008ED000008C8010020C807002075
:1001E000C8030020C8030020704700000FB4044972
:1001F00010B503AA029800F05DFB10BC5DF814FB7B
:100200003C00002070B5044685690068C10601D530
:10021000302600E02026C00707D070BDD4E90121B8
:1002200030469047206A401C20626D1EF6D570BD96
:1002300070B5044685690078C00707D170BDD4E960
:10024000012120209047206A401C20626D1EF6D5B7
:1002500070BD00002DE9F0410646002410687529A4
:10026000314616A510D0AFF30080002802DA4042D4
:1002700013A507E031688A0701D512A502E04907F6
:1002800004D511A5012401E0AFF3008000210A226A
:1002900006F1240709E0B0FBF2FCB0FBF2F302FB2D
:1002A0001C00303078541846491C0028F3D12346EE
:1002B0002A463046BDE8F04100F093B80000000047
:1002C0002D0000002B000000200000002DE9F04769
:1002D0004FF0000A89460446C0F820A02046E16895
:1002E0008847002876D0252806D0D4E901219047F8
:1002F000206A401C2062F1E7E1682046002588471B
:10030000C4F81CA006460027C4F818A02A2E09D05D
:10031000304602F0F9FC38B304EB8708303EC8F8E9
:10032000186019E059F8041B204604EB870291611C
:10033000E1688847012F064618D1E069002820DAD5
:1003400025F020051DE0D8F8180000EB800006EB32
:1003500040003038C8F818002046E1688847064653
:1003600002F0D2FC0028EED1012F0AD02E2E08D1A7
:100370002046E16888477F1C0646022F45F020058D
:10038000C4DBA069002803DA404245F00105A06102
:10039000E80701D025F01005B6B1A6F141001928F3
:1003A00002D8203645F400654A463146204625608D
:1003B0004D46FFF7D5FE58B1012806D0ED1D25F0BA
:1003C000070000F1080989E704E005F1040985E761
:1003D00030468AE7206ABDE8F0877047704770476B
:1003E00070472DE9F0470D4699469246044600F1C4
:1003F00024080168880604D5E06921F01001216015
:1004000000E00120A84201DD471B00E00027A169B0
:100410007A1902EB0900081AA0612078C00602D4FC
:100420002046FFF7EFFE002608E0D4E901211AF884
:1004300006009047206A401C761C20624E45F4DB83
:100440002078C0060AD52046FFF7DCFE06E0D4E996
:10045000012130209047206A401C2062381EA7F1FD
:100460000107F4DC07E0D4E9012118F80500904702
:10047000206A401C2062281EA5F10105F3DC2046FD
:10048000FFF7D6FE2078000602D50220BDE8F087EF
:100490000120FBE770472DE9FF4F0C461E464FF049
:1004A000FF378BB0D2E90001DDF860800A908A4600
:1004B000C1F30A5505B93D46002108464FF000003A
:1004C000BAF1000F00F4400005DA00EB80004FF4B1
:1004D000400101EA50004FEA9059B9F1010F00DDE7
:1004E000B9460A9850EA4A000ED044F61050A5F2D8
:1004F000FF3545432F14B8F1000F1ED07542291E59
:100500001EDDC9F100021CE0B8F1010F4FF0000040
:1005100001D0302103E0F24305E02154401CB042F9
:10052000FBDB30460022002121540B99C1F80880E2
:10053000C1E900200FB0BDE8F08FBD1B6D1CDEE7E8
:100540004A4600DA694206A800F068FA06AB93E86A
:10055000070003AB83E8070050460A9900F046FB0A
:100560008DE80700A0F500501F3800900398002D7B
:100570000ADD42F21F014A460844002303A9039002
:10058000684600F0AFFD09E0A0F500504A461F386C
:10059000002303A90390684600F0B9FD8DE8070029
:1005A0000004000C03D04FF0FF30410800E010467B
:1005B000B8F1000F03D00022009215461EE0751E10
:1005C00005D400F08DF9303262556D1EF9D5B34671
:1005D0000122084302D000227F1C04E0207830284A
:1005E00001D100227F1E002A099784D01DE0112D21
:1005F00007DA00F075F9303262556D1C50EA0102DD
:10060000F5D1084302D00098C8B10EE00021681E61
:1006100005E0235C625C63542254401E491C814205
:10062000F7DBAB46A81B401E0990002004F80B0026
:100630000B98099AC0F80880C0E9002B7AE71126C8
:100640004FF0000857E72DE9F04F88460446D21DC9
:1006500022F0070191B0D1E90001CDE90A0102F0D1
:100660003FFB02460B98C00F01D02D2007E0206809
:10067000810701D52B2002E0202101EAC000032AD6
:10068000099001D0072A05DB03464146204600F0C9
:1006900085F90BE12078800601D5E06900E00620AD
:1006A000B8F1650F814606D0B8F1660F18D0B8F1E1
:1006B000670F70D131E00020B9F1110F009001DB1C
:1006C000112301E009F101030AAA01A90CA8FFF70F
:1006D000E2FEDDE90C70002609F10105834647E0E2
:1006E00001204B4600904FF000470AAA01A90CA830
:1006F000FFF7D1FEDDE90DB00C995D46002610B97B
:1007000009F101000D18B9EB050003D4C0F1FF3663
:1007100009F10105A5EB09002BE0B9F1010F01DAA0
:100720004FF001090020B9F1110F0090484601DD9A
:10073000112300E003460AAA01A90CA8FFF7ABFEAB
:10074000DDE90C704D4600268346207800070AD468
:10075000AB4500DA5D4601A8012D04DD411911F811
:10076000011C302907D04F4502DA17F1040F04DAD3
:10077000012082460FE06D1EEEE7002F02DCED1B2C
:100780003E4403E0781CA84200DD7D1CB81B00F14C
:10079000010A4FF000472078000703D4AA4501DB87
:1007A0004FF0FF3A0021B7F1004F0DF143088DF8EB
:1007B000431024D002202B23002F01DA7F422D2367
:1007C0000A21021EA0F1010000DC5FB197FBF1FCE1
:1007D00097FBF1F201FB1C7C17460CF1300C08F87A
:1007E00001CDEEE7A8F1010003702188090501D5CC
:1007F000452100E06521A0F1010800F8011C0998DD
:100800000FA9A1EB0807FF1D00B10120411901EB61
:10081000EA70A1693844081A401EA0612078C00619
:1008200002D42046FFF7EEFC099828B1D4E9012153
:100830009047206A401C20622078C00622D52046BE
:10084000FFF7E0FC1EE0002E04DBB34502DD01A84B
:10085000805D00E03020D4E901219047206A401CEF
:100860002062761CAAF101005FEA000A0AD100F0BA
:1008700033F8C0680168405CD4E901219047206AE0
:10088000401C2062281EA5F10105DCDC07E0D4E94C
:10089000012118F8010B9047206A401C2062381E85
:1008A000A7F10107F3DC2046FFF7C2FC032011B0DB
:1008B00041E60000074B70B50D467B4400F05BF845
:1008C0000446284600F01CF910B14FF0FF3070BD0F
:1008D000204670BDBB2600000048704788010020FC
:1008E00030B5B0F10A024FEA900E71F100034EEA02
:1008F000817EB0EB0E0061EB91014FEA101E4EEAD3
:10090000017E10EB0E0041EB11114FEA102E4EEA62
:10091000016E10EB0E0041EB11214FEA104E4EEA32
:10092000014E10EB0E0041EB1141401841F1000166
:100930004FEAD00040EA41704FEAD10110EB800548
:100940004FEA810444EA907444EB01046D1944EBCE
:100950000404521BA3414FF0000348BF0A3200D5E4
:1009600030BD401C41F1000130BD000001694A1C4E
:1009700002610878704700B58FB0CDE901310021E0
:10098000059105497944CDE9031011466846FFF702
:100990009DFC0FB000BD0000E5FFFFFF2DE9F04119
:1009A0001F46044603260168072A01F4006004DBA1
:1009B00008B116A505E016A503E008B115A500E0ED
:1009C00015A521F010002060A069C01EA0610FB124
:1009D000401EA0612046FFF715FC4FB1D4E901216C
:1009E00038469047206A401C2062C01C206206E006
:1009F000206AFAE7D4E9012115F8010B9047761E29
:100A0000F8D22046FFF714FCBDE8F0814E414E00BD
:100A10006E616E00494E4600696E66002DE9F04732
:100A2000814616468AB0354878440DC88DE80D00D9
:100A300032487844801C03AC0DC884E80D0041F6B0
:100A40009B300844372190FBF1F290FBF1F5A5F1C2
:100A5000800501FB12041B3C02D56442012000E02A
:100A60000020DFF898A080460027FA44AAF1BE0AC9
:100A70000EE0E0070AD03246684607EB4701012343
:100A80000AEB810100F043FB8DE8070064107F1C36
:100A9000002CEED1194F7F44AE3F19E0E80715D086
:100AA00007EB04100DF1180A90E80E008AE80E001A
:100AB000C068F04201D1981908903246012306A976
:100AC00003A800F024FB03AB83E807006D10641C4F
:100AD000002DE3D14FF0010332466946B8F1000F13
:100AE00003A802D000F0FEFA01E000F010FBC9E913
:100AF0000001C9F808200AB0BDE8F087242F0000E3
:100B0000007B00F0800070470048704768010020BB
:100B10007546FFF7F9FFAE4605006946534620F0DB
:100B20000700854618B020B5FFF74CFBBDE8204014
:100B30004FF000064FF000074FF000084FF0000B99
:100B400021F00701AC46ACE8C009ACE8C009ACE84C
:100B5000C009ACE8C0098D46704710B50446AFF334
:100B600000802046BDE81040FFF717BB4FF0013C66
:100B700050F8042B51F8043B9A4221D1A2EB0C030C
:100B8000934313EACC1317D150F8042B51F8043BCC
:100B90009A4215D1A2EB0C03934313EACC130BD169
:100BA00050F8042B51F8043B9A4209D1A2EB0C03F4
:100BB000934313EACC13DBD04FF00000704700BF23
:100BC000D01A01BAB1FA81F101F0180122FA01F04C
:100BD000CB40C1F12001DBB2C0B2C01A2CFA01F344
:100BE000D11A914311EAC311E6D170475FEA400C74
:100BF00008BF91F0000F4FEA8C234FEAC12243EA6D
:100C000051514FEA1C5018BF00F5F0404FEA300038
:100C100018BF41F000415FEA6C5C00F02980BCF134
:100C2000FF3F08BF40F080407047130C06BF12041E
:100C30004FF0100C4FF0000C130E04BF12020CF119
:100C4000080C130F04BF12010CF1040C930F04BF26
:100C500092000CF1020CD30F04BF52000CF1010CF6
:100C600011464FF00002A0F11F00A0EB0C007047EE
:100C700011F0004F08BF704731F000413FF4D5AF8D
:100C80000B0C06BF09044FF0100C4FF0000C0B0EBC
:100C900004BF09020CF1080C0B0F04BF09010CF191
:100CA000040C8B0F04BF89000CF1020CCB0F04BFA6
:100CB00049000CF1010CCCF12003A0EB0C0022FA4E
:100CC00003F302FA0CF241EA030100F1010070475C
:100CD00020F07F4C80EA030023F07F47ACEB070352
:100CE00003F57C5300F0004003F1FF032DE9804938
:100CF0004FEA154B09B44FEA144325EA0B4E24EA98
:100D000003480FF2042606EB132749083E785FEAF2
:100D1000320203FB0667C7F5000707FB06F64FEA3A
:100D200054374FEAD64606F1020607FB066CCCF1B3
:100D3000005C4FEA1C472CEA074C07FB06F40CFB4F
:100D400006F504EB15464FEA961634BF00204FF027
:100D500000404FEAD13706FB07FC4FEA1C4C0CFB66
:100D60000BF7D21B03FB0CF761EB07010CFB0EF733
:100D7000B0EB074072EB17420CFB08F734BFA2EB55
:100D80000742B2EB074261EB17414FEA0C444FEACE
:100D9000910706FB07FC4FEA1C4C0CFB0BF7B0EB72
:100DA000C74072EB573203FB0CF734BFA2EBC742CC
:100DB000B2EBC74261EB57310CFB0EF7B0EBC7004B
:100DC00072EB57720CFB08F734BFA2EBC702B2EB11
:100DD000C70261EB5771039F4FEA816141EA9211AB
:100DE00004EBCC044FEAD1374FEA826206FB07FCE2
:100DF00042EA90124FEA80604FEA1C4C0CFB0BF762
:100E0000D21B03FB0CF761EB07010CFB0EF7B0EBF9
:100E1000074072EB17420CFB08F734BFA2EB074206
:100E2000B2EB074261EB17414FEA8C554FEA91074D
:100E300004EB9C2406FB07FC4FEA1C4C0CFB0BF755
:100E4000B0EBC74072EB573203FB0CF734BFA2EB99
:100E5000C742B2EBC74261EB57310CFB0EF7B0EB68
:100E6000C70072EB57720CFB08F734BFA2EBC70246
:100E7000B2EBC70261EB577115EB4C254FEA81616C
:100E800041EA92114FEA82624FEAD13742EA901268
:100E900006FB07FC44F100044FEA80604FEA1C4C5B
:100EA0000CFB0BF7D21B03FB0CF761EB07010CFBF0
:100EB0000EF7B0EB074072EB17420CFB08F734BF9C
:100EC000A2EB0742B2EB074261EB174115EB1C1591
:100ED0004FEA813141EA92414FEA823242EA90423E
:100EE0004FEA80304FEA0C7644F1000448EA0343AD
:100EF0004EEA0B484FF0000EB2EB080C71EB030703
:100F000024BF624639464EEB0E0E4FF0000B001820
:100F1000524149414BEB0B0BB2EB080C71EB030751
:100F20007BF1000B24BF624639464EEB0E0E4FF0AC
:100F3000000B0018524149414BEB0B0BB2EB080C74
:100F400071EB03077BF1000B24BF624639464EEB81
:100F50000E0E51EA020718BF46F0010616EB0E7698
:100F600055F1000254F1000103D5BDE88901BDE847
:100F70000088BDE88901BDE80048B619524141EB3F
:100F80000101A3F10103704780807F7E7D7C7B7A25
:100F90007978777676757473727171706F6E6E6D25
:100FA0006C6C6B6A6A6968686766666564646363CB
:100FB00062616160605F5F5E5E5D5D5C5C5B5B5A51
:100FC0005A595958585757565655555554545353BE
:100FD00052525251515050504F4F4F4E4E4D4D4D19
:100FE0004C4C4C4B4B4B4A4A4A4949494848484764
:100FF00047474746464645454544444444434343A2
:101000004342424242414141002B9C4630D477004A
:101010002BD01CB54FEA370703B44FF010004FF048
:101020001001BAF1000F06D0BCF1000FDCBF40F098
:10103000080040F008014FF000000FBCBDE8104070
:101040000BF1010BBBF1010F08BF5FEA170722BFCD
:1010500012F1010211F101014FF0004143F10003CF
:1010600000F0004043EA00007047F9D35708D0E78A
:1010700046EA064613F1400F4FEA16461FDD13F10C
:10108000200FDFBF16430A46002120335B42BED04B
:10109000C3F1200746EA064602FA07F74FEA16466A
:1010A00046EA0706C3F1200722FA03F201FA07F71E
:1010B00021FA03F14FF0000342EA0702A7E746EAEC
:1010C000020646EA06464FEA164646EA0106BCBF55
:1010D00046EA0646360C4FF000034FF000024FF090
:1010E000000194E72DE9804C9A46934670B491E84C
:1010F000380007C831EA400C48BF34EA430C03D536
:10110000FFF7E6FDFFF780FFF0BCBDE8008C2DE99E
:10111000804C9A46934670B491E8380007C810F0A6
:10112000804F08BF13F0804F03D100F005F8FFF7A0
:101130006BFFF0BCBDE8008C20F07F4780EA030025
:1011400023F07F4C07EB0C03A3F57C5300F0004029
:10115000A3F1FE0392F0000F00F0B38095F0000FB2
:1011600000F077802DE901494FEA11404FEA14461B
:1011700021EA004800FB06FC24EA064708FB06F6C5
:1011800007FB08F800FB07F718EB06484CEB164C7A
:101190004FEA124B18EB07484FEA15464CEB174045
:1011A00022EA0B4E0BFB06FC25EA06470EFB06F671
:1011B00007FB0EFE0BFB07F71EEB064E4CEB164C27
:1011C0004FF000061EEB074E4CEB174B18EB0B08CD
:1011D00040F1000018EB0E0B58EB000840F1000046
:1011E0008F1A4FF000013CBFC943661B14BFB5EB1B
:1011F000040C00213CBFC943F61B4FEA17444EEADA
:101200008E0E27EA04454FEA1C4704FB07622CEACE
:10121000074C05FB07F70CFB05F604FB0CFC16EB73
:10122000074642EB174216EB0C4642EB1C421BEB07
:10123000060658EB0202414146EA9E0601D5BDE88A
:101240000189B619524141EB0101A3F10103BDE847
:1012500001894FEA14454FEA114724EA054621EA7D
:10126000074C05FB07F406FB07F70CFB06F105FB33
:101270000CFC11EB074144EB17444FEA124711EB0A
:101280000C4144EB1C4422EA074C05FB07F206FB29
:1012900007F70CFB06F605FB0CFC16EB074642EBCA
:1012A000174216EB0C4642EB1C456A1854F100013C
:1012B00048BF7047B619524141EB0101A3F1010348
:1012C000704795F0000F37D04FEA11424FEA1447AC
:1012D00021EA024624EA074C02FB07F106FB07F766
:1012E0000CFB06F402FB0CFC14EB074441EB17412A
:1012F0004FEA154714EB0C4441EB1C4125EA074C1F
:1013000002FB07F506FB07F70CFB06F602FB0CFCDD
:1013100016EB074645EB174516EB0C4645EB1C4212
:10132000121951F1000148BF7047B619524141EB03
:101330000101A3F1010370474FEA14454FEA114739
:1013400024EA054621EA074C05FB07F106FB07F7EF
:101350000CFB06F24FF0000605FB0CFC12EB0742FB
:1013600041EB174112EB0C4251EB1C4148BF704757
:10137000921841EB0101A3F10103704721B182688A
:1013800042F00102826003E0826822F00102826082
:101390007047000010B504461248844208D101216C
:1013A000401500F033FD0021601500F02FFD17E01F
:1013B0000D48844208D10121001500F027FD0021CD
:1013C000201500F023FD0BE00848844208D10121DC
:1013D000C80300F01BFD00214FF4004000F016FD93
:1013E00010BD00000024014000280140003C0140E5
:1013F000014600208A6802F004020AB1012000E0E0
:10140000002070470146C86C80B270470246002039
:1014100013680B400BB1012000E00020704701462B
:1014200000208A6802F008020AB1012000E00020D2
:101430007047000030B502460020002350680F4C72
:1014400020400D790C6844EA0524204350609068E0
:101450000B4C2040D1E902542C434D7944EA450419
:1014600020439060D06A20F470000C7C641EE4B2CB
:10147000234340EA0350D06230BD0000FFFEF0FF7E
:10148000FDF7F1FFF0B504460D4600200021092DBF
:1014900011DDE068A5F10A0606EB4607072606FA05
:1014A00007F18843A5F10A0606EB460603FA06F1A2
:1014B0000843E0600CE0206905EB4507072606FAC3
:1014C00007F1884305EB450603FA06F1084320615E
:1014D000072A0FDA606B561E06EB86071F2606FAF0
:1014E00007F18843561E06EB860605FA06F1084307
:1014F000606322E00D2A0FDA206BD61F06EB860709
:101500001F2606FA07F18843D61F06EB860605FA62
:1015100006F10843206310E0E06AA2F10D0606EB35
:1015200086071F2606FA07F18843A2F10D0606EB8F
:10153000860605FA06F10843E062F0BD816841F0D5
:1015400008018160704721B1826842F4A002826084
:1015500003E0826822F4A00282607047816841F053
:1015600004018160704700BFFEE7704700B587B097
:101570000121084600F02AFC0121052000F036FC7C
:1015800001212A4800F0D0F90121294800F0CCF9C6
:101590004FF40040ADF8000004208DF803006946C8
:1015A000244800F035F90820ADF8000004208DF83B
:1015B00003006946204800F02BF904A801F076F9F1
:1015C0000020ADF810004FF6FF70ADF814000020B9
:1015D000ADF81600ADF8120004A94FF0804001F0FC
:1015E00013F900231A4603214FF0804000F0F1FE6A
:1015F00001A800F065FF0A20ADF80C0001A9400722
:1016000000F008FF0121880700F0D4FE01221146F6
:10161000900700F05EFF00214FF0804001F0C6F817
:101620000121880700F0C9FE07B000BD00031800C3
:101630000004300000080140000C014000B587B0F4
:101640000121022000F0C2FB0121042000F0CEFBAA
:10165000C020ADF8000004208DF8030069461C4846
:1016600000F0D6F804A801F021F90020ADF8100030
:101670004FF6FF70ADF814000020ADF81600ADF87D
:10168000120004A9134801F0BFF800231A460321F1
:10169000104800F09EFE01A800F012FF0A20ADF8ED
:1016A0000C0001A90B4800F0B5FE0121094800F02B
:1016B00081FE01221146074800F00BFF002105487A
:1016C00001F074F80121034800F077FE07B000BD77
:1016D000000801400004004000B587B0012104204B
:1016E00000F074FB0121082000F080FBC020ADF861
:1016F000000004208DF8030069461C4800F088F8BB
:1017000004A801F0D3F80020ADF810004FF6FF70E8
:10171000ADF814000020ADF81600ADF8120004A9D1
:10172000134801F071F800231A460321104800F015
:1017300050FE01A800F0C4FE0A20ADF80C0001A97B
:101740000B4800F067FE0121094800F033FE01223A
:101750001146074800F0BDFE0021054801F026F8BB
:101760000121034800F029FE07B000BD000C014034
:101770000008004000B587B00121480300F036FBA7
:101780000121102000F032FBC020ADF80000042041
:101790008DF8030069461C4800F03AF804A801F0EF
:1017A00085F80020ADF810004FF6FF70ADF814007A
:1017B0000020ADF81600ADF8120004A9134801F09E
:1017C00023F800231A460321104800F002FE01A866
:1017D00000F076FE0A20ADF80C0001A90B4800F0DD
:1017E00019FE0121094800F0E5FD012211460748D4
:1017F00000F06FFE0021054800F0D8FF01210348EA
:1018000000F0DBFD07B000BD0010014000340140D6
:101810002DE9F04102460025002600200023002487
:10182000002791F803C00CF00F0591F803C00CF0ED
:10183000100CBCF1000F03D091F802C04CEA050572
:1018400091F800C0BCF1000F31D0146800202BE0EB
:101850004FF0010C0CFA00F3B1F800C00CEA0306DB
:101860009E4220D183004FF00F0C0CFA03F7BC43CB
:1018700005FA03FC4CEA040491F803C0BCF1280FFC
:1018800006D14FF0010C0CFA00FCC2F814C00AE0BB
:1018900091F803C0BCF1480F05D14FF0010C0CFAD0
:1018A00000FCC2F810C0401C0828D1D31460B1F865
:1018B00000C0BCF1FF0F34DD546800202EE000F1C1
:1018C000080C4FF0010808FA0CF3B1F800C00CEA5C
:1018D00003069E4221D183004FF00F0C0CFA03F750
:1018E000BC4305FA03FC4CEA040491F803C0BCF1C4
:1018F000280F05D100F1080C08FA0CF8C2F8148082
:1019000091F803C0BCF1480F07D100F1080C4FF06B
:10191000010808FA0CF8C2F81080401C0828CED341
:101920005460BDE8F0810000F0B50A4600230024B1
:101930000021002500F00046B6F1004F02D11D4EF7
:10194000F16901E01B4E7168C0F3034583B200F4F6
:101950004016B6F5401F08D121F07061154E76682B
:1019600026F07066134F7E6012E000F48016B6F524
:10197000801F06D1032606FA05F4A14341F07061E9
:1019800006E0460D360103FA06F6B14341F07061F8
:1019900022B1460D360103FA06F6314300F0004647
:1019A000B6F1004F02D1034EF16101E0014E7160CA
:1019B000F0BD0000000001404161704701617047C7
:1019C00010B504460723012221460948FFF75AFDB6
:1019D00001210748FFF7B7FD00BF02210448FFF7C8
:1019E00015FD0028F9D00248FFF70CFD10BD0000DE
:1019F000002401402DE9F04107460C460025002651
:101A000008E03846FFF7DCFF0544052001F068FADE
:101A1000701CC6B2A642F4DBB5FBF4F080B2BDE8A0
:101A2000F081000008B50121182000F0DFF943F231
:101A30000300ADF8000010208DF8030003208DF89E
:101A4000020069460848FFF7E3FE46F20600ADF8DB
:101A5000000010208DF8030003208DF80200694675
:101A60000248FFF7D5FE08BD000C01400010014000
:101A700000BFFEE700BFFEE77047000070B5002121
:101A800000230F22C47804B3154C246804F4E064E6
:101A9000C4F5E064210AC1F10403CA40447804FAA1
:101AA00003F184781440214309010E4C0678A155B6
:101AB000047804F01F050124AC4005786D11AD00D9
:101AC00005F1E025C5F8004109E0047804F01F05A0
:101AD0000124AC40044D0678761145F8264070BDCF
:101AE0000CED00E000E400E080E100E00146014888
:101AF000405C70475C010020002004E00021034AA4
:101B00001154411CC8B20928F8DB70475C01002061
:101B100038B504460120009000201C49487001207F
:101B200000902EE0BDF80000204018B101201849B7
:101B3000086002E0002016490860012014490831BD
:101B40000860322001F0F2F900201249C1F8BC010E
:101B5000322001F0EBF901200E49C1F8BC01084622
:101B6000D0F8300130B109484078BDF80010084382
:101B700006494870BDF800004FF6FF7101EA4000C9
:101B80000090BDF80000FF28CCDD38BD5C010020CE
:101B9000B48121420080214210B5FFF7ADFF00F073
:101BA0004FF80F48C0780E49097940EA01200D49E5
:101BB000088000240FE00C4810F81400401E01219A
:101BC00001FA00F007490988084010B9601CC0B24A
:101BD00010BD601CC4B2102CEDDB0020F8E7000043
:101BE0005C01002070000020740000201148806912
:101BF00040F008000F4988610F48006820F4702009
:101C00000D4908600846006840F400200860094853
:101C1000806940F008000749886107480068C0F300
:101C20001300054908600846006804490843024952
:101C30000860704700100240040C0140000030337F
:101C40001CB500200190012000900020244908606C
:101C500024490878FFF75CFF22494878FFF758FFCE
:101C60000220019033E00120009024E001201C4973
:101C7000091D086000201C49C1F8BC01322001F098
:101C800055F901201849C1F8BC010846D0F83001C7
:101C900050B116489DF80410405CBDF80010084390
:101CA00012499DF804208854BDF800004FF6FF71DA
:101CB00001EA40000090BDF80000FF28D6DD322088
:101CC00001F034F99DF80400401CC0B201909DF869
:101CD00004000928C7DB0120014908601CBD000081
:101CE000B881214272000020008021425C01002066
:101CF00030B589B005460C460121042000F076F885
:101D00000121082000F062F818208DF823000F2030
:101D1000ADF8200003208DF8220008A92248FFF723
:101D200077FDADF81850ADF814400020ADF81A005A
:101D3000ADF8160005A91D4800F066FD6020ADF85D
:101D400004000020ADF80A00ADF80C000120ADF849
:101D5000060001A9154800F0C5FB01A9134800F0D1
:101D600017FC01A9114800F073FC01A90F4800F00D
:101D7000C9FC08210D4800F001FC08210B4800F0C7
:101D800059FC0821094800F0B3FC0821074800F07D
:101D9000F7FC0121054800F001FB0121034800F098
:101DA0000CFB09B030BD000000080140000C0040F1
:101DB0007047000001460020034A506820F440406C
:101DC00008435060704700000010024029B1064AE5
:101DD000D2690243044BDA6104E0034AD2698243C8
:101DE000014BDA61704700000010024029B1064A39
:101DF00092690243044B9A6104E0034A9269824368
:101E0000014B9A61704700000010024029B1064A58
:101E1000D2680243044BDA6004E0034AD26882438A
:101E2000014BDA60704700000010024030B500211D
:101E30000022002400232D4D6D6805F00C0121B116
:101E4000042905D0082923D105E0294D056022E0A9
:101E5000274D05601FE0254D6D6805F47012234D78
:101E60006D6805F48034022505EB92421CB9214DC2
:101E7000554305600BE01D4D6D6805F400351DB13F
:101E80001C4D5543056002E0194D5543056002E0C5
:101E9000174D056000BF00BF144D6D6805F0F001DF
:101EA0000909154D6B5C0568DD4045600F4D6D6897
:101EB00005F4E061090A104D6B5C4568DD40856002
:101EC0000A4D6D6805F46051C90A0B4D6B5C45689D
:101ED000DD40C560054D6D6805F44041890B074D37
:101EE0006B5CC568B5FBF3F5056130BD00100240C1
:101EF00000127A0000093D00240000203400002078
:101F0000014602290CD0032913D0042918D008292E
:101F10001DD1124A128810B20022104B1A8018E00C
:101F20004FF08042928C10B200224FF080439A848E
:101F30000FE00B4A128810B20022094B1A8008E009
:101F4000084A128810B20022064B1A8001E00020D5
:101F500000BF00BF002800DA40427047243401402F
:101F60002404004024080040704710B500F002F837
:101F700010BD00000CB500200190009033480068AF
:101F800040F480303149086000BF3048006800F4F8
:101F9000003000900198401C0190009818B90198F9
:101FA000B0F5A06FF1D12948006800F4003010B1FD
:101FB0000120009001E0002000900098012843D10A
:101FC0002348006840F01000214908600846006876
:101FD00020F0030008600846006840F00200086036
:101FE0001A484068194948600846406848600846F1
:101FF000406840F4806048600846406820F47C10E7
:1020000048600846406840F4E810486008460068A8
:1020100040F08070086000BF0C48006800F000705D
:102020000028F9D00948406820F0030007494860BB
:102030000846406840F00200486000BF034840681E
:1020400000F00C000828F9D10CBD0000001002407F
:10205000002002402DE9F04104460D4616461F4679
:10206000A1B2084800F099FBA9B2064800F097FB1E
:10207000B1B2044800F095FBB9B2024800F093FBFE
:10208000BDE8F081000C0040042808D14FF0E021A9
:10209000096941F004014FF0E022116107E04FF0BF
:1020A000E021096921F004014FF0E022116170473D
:1020B0007047000010B51348006840F00100114956
:1020C000086008464068104908400E4948600846C4
:1020D00000680E4908400B4908600846006820F473
:1020E000802008600846406820F4FE0048604FF4F5
:1020F0001F008860FFF739FF4FF000600449086057
:1021000010BD0000001002400000FFF8FFFFF6FEC7
:1021100008ED00E0F0B50C46154600220021068CC3
:102120004FF6FE773E400684028B018C4FF60C760C
:1021300032407E1C06EA03162E433243104EB04254
:102140000ED0104EB0420BD0B0F1804F08D00E4EE2
:10215000B04205D00D4EB04202D00D4EB04206D175
:102160004FF6FD76314044F00106314305E04FF66D
:10217000F576314044F00106314302830184F0BD1D
:10218000002C0140003401400004004000080040E1
:10219000000C0040F0B50C46154600220021002638
:1021A000078C4FF6EF7C07EA0C070784028B018C43
:1021B0004FF6FF7707EA041640F6FF473A404FF61E
:1021C000FF7707EA03373A434FF6FF7707EA052719
:1021D0003A43114FB8420ED0104FB8420BD0B0F175
:1021E000804F08D00E4FB84205D00E4FB84202D0F3
:1021F0000D4FB84206D14FF6DF77394046F0100751
:10220000394305E04FF65F77394044F01007394312
:1022100002830184F0BD0000002C01400034014025
:102220000004004000080040000C0040F0B50C46DF
:102230001546002200210026078C4FF6FF6C07EAA6
:102240000C070784828B018C4FF6FF7707EA042680
:102250004FF60C773A404FF6FF7707EA03172F4304
:102260003A43114FB8420ED0104FB8420BD0B0F1E4
:10227000804F08D00E4FB84205D00E4FB84202D062
:102280000D4FB84206D14FF6FF57394046F48077DC
:10229000394305E04FF2FF57394044F48077394322
:1022A00082830184F0BD0000002C01400034014015
:1022B0000004004000080040000C0040F0B50C464F
:1022C0001546002200210026078C4EF6FF7C07EA07
:1022D0000C070784828B018C4FF6FF7707EA0436E0
:1022E00040F6FF473A404FF6FF7707EA05273A43A3
:1022F0004FF6FF7707EA03373A43114FB8420ED043
:10230000104FB8420BD0B0F1804F08D00E4FB842FA
:1023100005D00E4FB84202D00D4FB84206D14DF64F
:10232000FF77394046F48057394305E047F6FF57B9
:10233000394044F48057394382830184F0BD000062
:10234000002C01400034014000040040000800401F
:10235000000C00404FF08040008A4FF08040008A1F
:1023600020F001004FF08041088270470448008847
:102370000348008820F001000149088070470000F0
:1023800010040040044800880348008820F0010041
:1023900001490880704700001008004021B1028800
:1023A00042F08002028004E002884FF67F731A40F8
:1023B00002807047CA430282704721B1028842F00E
:1023C0000102028004E002884FF6FE731A40028088
:1023D0007047F0B50C4615461E460021002200232A
:1023E0000189028B038C4FF6F877394021434FF671
:1023F000FC473A4040F201173A434FF6DD773B4045
:102400004FF6FF7707EA06172F433B43018102830C
:102410000384F0BD70B505460C46244885420ED0B5
:10242000234885420BD0B5F1804F08D02148854222
:1024300005D02148854202D02048854200D100E0E5
:1024400000BF208850B92389A28861882846FFF7F9
:1024500061FEE188284600F0ABF925E020880428D9
:102460000AD12389A28861882846FFF793FEE18874
:10247000284600F0A6F917E0208808280AD1238909
:10248000A28861882846FFF7D1FEE188284600F03F
:10249000A5F909E02389A28861882846FFF70EFF85
:1024A000E188284600F0A3F970BD0000002C01402F
:1024B000003401400004004000080040000C0040CF
:1024C000002101804180012181800021C1800181A2
:1024D00070471AB183890B43838102E083898B4360
:1024E0008381704770B5002400220023058C4FF6CD
:1024F000FE7635400584028C8388048B4FF68F75F9
:102500002C40B51E2C400D882C43751E2A400D8989
:102510002A434D882A43144DA8420BD0134DA8429C
:1025200008D0134DA84205D0124DA84202D0124D3A
:10253000A84213D14FF6F7752A404D892A434FF62A
:10254000FB752A408D882A434FF6FF652B404FF6D6
:10255000FF552B408D892B43CD892B4383800483EA
:10256000CD888586028470BD002C01400034014076
:102570000040014000440140004801400A4600215B
:10258000018B4FF6F7731940114301837047000028
:1025900070B5002400220023058C4FF6EF763540FD
:1025A0000584028C8388048B48F6FF752C404FF617
:1025B000FF452C400D884FF6FF7606EA05252C4393
:1025C0004FF6DF752A400D8906EA05152A434D8826
:1025D00006EA05152A43154DA84202D0144DA8421B
:1025E0001DD14FF67F752A404D894FF6FF7606EADA
:1025F00005152A434FF6BF752A408D8806EA051552
:102600002A434FF6FF352B404FF2FF752B408D8943
:1026100006EA85052B43CD8906EA85052B43838091
:102620000483CD880587028470BD0000002C014022
:10263000003401400A460021018B4FF2FF7319401C
:102640004FF6FF7303EA022319430183704700002A
:1026500070B5002400220023058C4FF6FF6635403C
:102660000584028C8388848B4FF68F752C404FF63F
:10267000FC752C400D882C434FF6FF552A400D89E0
:102680004FF6FF7606EA05252A434D8806EA05251A
:102690002A43154DA84202D0144DA8421DD14FF235
:1026A000FF752A404D894FF6FF7606EA05252A4335
:1026B0004FF6FF352A408D8806EA05252A434EF657
:1026C000FF752B404DF6FF752B408D8906EA0515E9
:1026D0002B43CD8906EA05152B4383808483CD885F
:1026E0008587028470BD0000002C01400034014049
:1026F0000A460021818B4FF6F773194011438183FD
:102700007047000070B5002200230024058C4EF6AF
:10271000FF7635400584038C8488828B48F6FF75EC
:102720002A404FF6FF452A400D884FF6FF7606EA0D
:1027300005252A434DF6FF752B400D8906EA053520
:102740002B434D8806EA05352B430B4DA84202D09A
:102750000A4DA84208D14BF6FF752C408D894FF6E3
:10276000FF7606EA85152C4384808283CD88A0F805
:102770004050038470BD0000002C01400034014033
:102780000A460021818B4FF2FF7319404FF6FF7309
:1027900003EA0223194381837047818670470187CA
:1027A000704781877047A0F8401070478184704758
:1027B000028B4FF6F3731A400283028B0A430283A3
:1027C0007047028B4FF2FF331A400283028B4FF6A1
:1027D000FF7303EA01231A4302837047828B4FF68B
:1027E000F3731A408283828B0A4382837047828B01
:1027F0004FF2FF331A408283828B4FF6FF7303EA56
:1028000001231A4382837047002202881D4B98429D
:102810000ED01D4B98420BD0B0F1804F08D01B4B0F
:10282000984205D01A4B984202D01A4B984204D1D4
:102830004FF68F731A404B881A43174B984207D0B4
:10284000164B984204D04FF6FF431A40CB881A43E8
:1028500002808B8883850B8803850A4B98420BD0B6
:10286000094B984208D00E4B984205D00D4B984228
:1028700002D00D4B984201D10B7A0386012383824B
:1028800070470000002C014000340140000400406B
:1028900000080040000C0040001000400014004000
:1028A0000040014000440140004801404FF6FF71E4
:1028B000818000210180C180418001727047000049
:1028C00010B540F225511D4800F04AF810B31B48DE
:1028D00000F002F9C4B21A48008800F40040C8B9F8
:1028E0001748008800F4804060B10A2C03D0002013
:1028F0001349088020E01248008840F40040104945
:10290000088019E00D2C06D10D48008840F4804065
:102910000B49088010E00A480088C0F30D000949FF
:102920000C5407480088401C054908800846008868
:10293000C72801DD0020088010BD000000380140DC
:10294000400000209400002021B1828942F400520E
:10295000828104E082894DF6FF731A4082817047BC
:1029600070B50246002400230025002040F66A16B8
:10297000B14200D100BFC1F3421501F01F0301268F
:1029800006FA03F3012D02D19689334006E0022DA9
:1029900002D1168A334001E0968A33400C12012698
:1029A00006FA04F41688344013B10CB1012000E09B
:1029B000002070BDF0B5034600240026002500204D
:1029C00040F66A17B94200D100BF1846C1F342145D
:1029D00001F01F06012707FA06F5012C01D10C3082
:1029E00004E0022C01D1103000E014301AB1076865
:1029F0002F43076002E00768AF430760F0BD0000A7
:102A00002DE9F04786B005460E460024A24600BFD9
:102A1000A1460027B08900B100BF2F462C8A4CF692
:102A2000FF700440F08804432C82AC894EF6F3100A
:102A30000440B08831890843718908430443AC815C
:102A4000AC8A4FF6FF400440B0890443AC8201A831
:102A5000FFF7ECF91F48874202D1DDF810A001E032
:102A6000DDF80CA0A88900F4004040B10AEBCA00D0
:102A700000EB0A1031684900B0FBF1F807E00AEBFF
:102A8000CA0000EB0A1031688900B0FBF1F864203D
:102A9000B8FBF0F004012009642101FB1089A8892A
:102AA00000F4004040B1322000EBC900B0FBF1F06F
:102AB00000F00700044308E0322000EB0910642115
:102AC000B0FBF1F000F00F0004432C8106B0BDE82C
:102AD000F08700000038014001468888C0F30800F4
:102AE000704700BFFEE700002DE9F84F05460E468F
:102AF000AC1B204600F07EFD83461D480168584609
:102B000000F0A4FD81461B490968601A00F072FDBF
:102B1000834619480168584600F098FD82464946A8
:102B200000F0EAFC80461548006800F063FD41466D
:102B3000009000F0E1FC074600F040FD0F490860FE
:102B40000C48046008460068B0F5E15F03DD4FF40F
:102B5000E150086007E00948006810F5E15F02DA1B
:102B600007480649086005480068BDE8F88F00007E
:102B700048000020540000204400002050000020A5
:102B8000E0E3FFFF2DE9F84F05460E46AC1B20465B
:102B900000F030FD834614480168584600F056FDA9
:102BA000814612490968601A00F024FD83461048E6
:102BB0000168584600F04AFD8246494600F09CFCF8
:102BC00080460C48006800F015FD4146009000F07A
:102BD00093FC074600F0F2FC0649086003480460D5
:102BE00008460068BDE8F88F480000205C0000201F
:102BF00044000020580000202DE9F84F05460E46FD
:102C0000AC1B204600F0F6FC834614480168584689
:102C100000F01CFD814612490968601A00F0EAFCC8
:102C2000834610480168584600F010FD8246494628
:102C300000F062FC80460C48006800F0DBFC414676
:102C4000009000F059FC074600F0B8FC0649086007
:102C50000348046008460068BDE8F88F480000207B
:102C60006400002044000020600000202DE9F84F9F
:102C700005460E46AC1B204600F0BCFC83461448BB
:102C80000168584600F0E2FC814612490968601A62
:102C900000F0B0FC834610480168584600F0D6FCAE
:102CA0008246494600F028FC80460C48006800F047
:102CB000A1FC4146009000F01FFC074600F07EFC9E
:102CC000064908600348046008460068BDE8F88FBC
:102CD000480000206C000020440000206800002014
:102CE000490050EAC12018BF04204A0D18BF40F027
:102CF000010040F2FF72B2EB515F08BF40F00200EA
:102D0000012808BF0520704730380A2801D2012069
:102D1000704700207047014600BF704700B587B07C
:102D200001214FF40170FFF761F82020ADF8180081
:102D300000208DF81B0006A91948FEF769FD4FF425
:102D40000040FFF737F81748FEF724FB00200190FA
:102D50008DF808008DF809004FF4602003900020E2
:102D6000049001208DF8140001A90E48FEF762FBC3
:102D700001210C48FEF702FB0A48FEF7DFFB00BF0B
:102D80000848FEF74CFB0028FAD10648FEF7E6FBA0
:102D900000BF0448FEF72CFB0028FAD107B000BDA5
:102DA000000801400024014010B50820FEF79EFEF7
:102DB000012806D100F072F94FF4FA703349086027
:102DC0000FE00620FEF792FE012807D1002000F058
:102DD00065F94FF4FA702D49086002E000202B4994
:102DE00008600520FEF782FE012806D100F072F986
:102DF0004FF4FA70264908600FE00720FEF776FED0
:102E0000012807D1002000F065F94FF4FA7020493D
:102E1000086002E000201E4908601A20FEF766FEE6
:102E2000012806D100F072F94FF4FA7019490860D0
:102E30000FE00E20FEF75AFE012807D1002000F017
:102E400065F94FF4FA701349086002E00020114957
:102E500008600D20FEF74AFE012806D100F070F947
:102E60004FF4FA700C4908600FE00F20FEF73EFEA9
:102E7000012807D1002000F063F94FF4FA700649E9
:102E8000086002E000200449086010BD0000002036
:102E900004000020080000200C00002010B56FF096
:102EA0000400FFF7F1F80A4800680A49B0FBF1F0A6
:102EB000094908700846007800EB4001C1EBC010DA
:102EC0004FF6FF7101EAC0000449088010BD000000
:102ED0001000002000127A00380000203A00002084
:102EE0000146114A12884A434FF0E0235A610022FA
:102EF0009A611A46126942F001021A6100BF4FF04E
:102F0000E022106900F001021AB100F48032002AB8
:102F1000F5D04FF0E022126922F001024FF0E023D9
:102F20001A6100229A6170473A0000200146114A56
:102F300012784A434FF0E0235A6100229A611A4600
:102F4000126942F001021A6100BF4FF0E0221069DD
:102F500000F001021AB100F48032002AF5D04FF0DF
:102F6000E022126922F001024FF0E0231A610022F0
:102F70009A6170473800002000BF054A128802F0AD
:102F80004002002AF9D0C2B2014B1B1D1A807047C3
:102F90000038014088B04FF0000B002007900690E9
:102FA0000590FFF787F8FFF779FFFEF73BFD4FF439
:102FB000E13000F0DFF8FFF7B1FE002141F61F40DD
:102FC000FEF796FEFEF7D6FBFEF7D0FAFEF736FBCD
:102FD000FEF782FBFEF70AFE52E0FEF7DDFDFFF78B
:102FE000E3FE0A210520FEF705FD0490049800F099
:102FF00019FB019000F054FA4FF06632214BCDE9F5
:10300000020100F04FF9074600F01AF98246082045
:10301000FEF776FF04460220FEF772FF0546032006
:10302000FEF76EFF06460420FEF76AFF8146214642
:1030300015480068FFF758FD834629461348006885
:10304000FFF7A0FD0790314611480068FFF7D4FD57
:10305000069049460F480068FFF708FE059058465D
:10306000DDE905320799FEF7F5FF504600F018FA42
:1030700007463A460B4608488DE87002FDF7B6F859
:10308000ABE700006626823F00000020040000201D
:10309000080000200C0000206839000810B5044624
:1030A000012C08D181030A48FEF788FC6103084817
:1030B000FEF782FC0AE04CB94FF400510448FEF7D9
:1030C0007DFC4FF480410248FEF776FC10BD000005
:1030D0000010014010B50446012C08D141030A48F4
:1030E000FEF76CFC21030848FEF766FC0AE04CB9C9
:1030F0004FF480510448FEF761FC4FF40051024840
:10310000FEF75AFC10BD0000000C014010B504464B
:10311000012C08D102210948FEF750FC0121074883
:10312000FEF74AFC08E03CB901210448FEF746FCE2
:1031300002210248FEF740FC10BD0000000C0140D7
:1031400010B50446012C08D102210948FEF736FCCF
:1031500004210748FEF730FC08E03CB9042104488C
:10316000FEF72CFC02210248FEF726FC10BD0000F1
:103170000010014010B586B00446012144F204005D
:10318000FEF734FE4FF40070ADF8140003208DF804
:10319000160018208DF8170005A91C48FEF738FB0B
:1031A0004FF48060ADF8140004208DF8170005A9D5
:1031B0001648FEF72DFB25208DF8000003208DF822
:1031C00001008DF8020001208DF803006846FEF72B
:1031D00055FC01940020ADF80800ADF80A00ADF8E8
:1031E0000C00ADF810000C20ADF80E0001A9084845
:1031F000FFF706FC012240F225510548FFF7DAFBF4
:1032000001210348FFF7A0FB06B010BD00080140F4
:103210000038014010B500290AD00878002807D0EE
:1032200005487844FDF7A2FC002801D0002010BD1D
:103230000248784410BD0000BA070000B207000041
:1032400021F00042A2F16052B2F5801F01F000436C
:1032500028BFD2F17F6C0BD95FEA001C43EAC2029F
:1032600042EB507018BF704728BF20F00100704734
:10327000B2F5801FBCBF184670474FEA410C1CF5E1
:10328000001F02D2084600F0A8BA70B500F0B4F8EA
:1032900000000089FFF7F6BF4FF00040A0F5800066
:1032A00070470000DFF848C170B51CEA111E1EBF50
:1032B0001CEA13159EEA0C0F95EA0C0F00F06F80C4
:1032C00081EA030423EA4C134EEAD47E21EA4C112E
:1032D00041F4801143F48013AE44A1FB024CA0FBE7
:1032E0000365AEF17F7E361955EB0C05A1FB034C4F
:1032F0004CF10003A0FB021C16EB0C06654153F1D8
:103300000003094218BF46F0010613F4007F0BD1F9
:103310004FEA03314FEA0530340341EA155140EAE0
:1033200016506FF003020AE04FEAC3214FEAC520AE
:10333000F40241EA555140EA56506FF0020202EBA6
:103340002E4201EB025585EACE710AD05FEA440CA9
:1033500018BF24F0004450F1000041F1000120EAC0
:10336000D47040F2FE7C624500D270BDA84214BF0A
:103370004FF080444FF04044002E08BF0024BEF1BF
:10338000806FA8BFA1F1C041BDE8704080F282808B
:103390004FF0000001F1C04101F0004170479EEA8A
:1033A0000C0F0CEA131518BF95EA0C0F06D04FF05E
:1033B000000081EA030E0EF0004170BD00F01CF821
:1033C0008900013E00F007B800F009B84FEA430C4D
:1033D0005FEA5C5C08D081EA030100F05BB84FEA69
:1033E000410C5FEA5C5CF6D14FF000000149704788
:1033F0000000FF070000F87F0EF1020E2EF0030E12
:103400005EF8046B364205D4012A43EB030515F53B
:10341000001F12D8012841EB010C1CF5001F0CD82D
:103420000ED14FEAD17C15F5001F0CEB4C0C0CF1C2
:10343000020C08BF4CEBD37C04E04FF0080C01E019
:103440004FEAD37C0CEB4C0526FA05F606F007068E
:10345000B6F1040C06D20EEB860CBDE870404CF0C1
:10346000010C6047DFE80CF0090B02024FF000414D
:103470004FF00000A1F5002170BD1946104601284B
:1034800051EB010418BFD4F5001484BF002001F0F3
:10349000004170BD0808A0F500114FEA31017047E6
:1034A00043004FEAD30C4FEA3C0C43401FBF400798
:1034B0000CF1605113F0FE4F70471CF0006F03D108
:1034C00000200CF0004170470CF0004343EA5070BC
:1034D00010B540EACC0000F03AF900BF00000092BD
:1034E0004FEA0001FFF7D6BF4FF000414FF0000058
:1034F000A1F500217047000090EA010F48BF81F05C
:10350000004100F17681421A3CBF801A89184FEAC7
:10351000D0524FF07F4C1CEA410FA2EBD15318BFA1
:103520009CEA026F00F03B804FF0004C4CEA002018
:103530004CEA012121FA03FC10EB0C0C1ED202F123
:10354000FF325FEA1C2040EBC25038BF70471CF0CE
:103550007F0F4FEA400C18BFBCF17F4F38BF704758
:10356000C3F12003994008BF20F00100BCF17F4F58
:1035700038BF7047A0F1C04000F02FB94FEA3C00BF
:10358000000A40EBC25028BF1CF0FF0F4FEA400C6E
:10359000E6D018BFBCF17F4F38BF7047EAE79CEA1E
:1035A000026F05D010EA5C0F08BF00F000407047C2
:1035B00010B500F0CCF800BF64FBBE3E41000B0E1E
:1035C000D3F19E0208D950F400034FEA032323FAF3
:1035D00002F048BF4042704710B500F0B8F800BF95
:1035E00049922480002070476FF0004282EA200058
:1035F0007047000010F0004148BF4042B0FA80F32D
:1036000010FA03F2C3F19D030BD051EAC35101EB51
:103610001220530638BF704700F1010008BF20F0A8
:1036200001007047B0FA80F310FA03F2C3F19D0372
:103630000AD0D90501EB1220530638BF704700F1BC
:10364000010008BF20F00100704700004FF47F0C1C
:103650001CEAD0121EBF1CEAD11392EA0C0F93EAA7
:103660000C0F00F0478090EA010F48BF42F48072CF
:103670004FF0004C4CEA00204CEA012102EB03021F
:10368000A0FB0113A2F50002002918BF43F00103BB
:103690005B0028BF4FEA330342EB22425FEA132C60
:1036A0004CEBC2502EBFBCEB436FB2F57C0F7047A2
:1036B0004FEA036CBCF1004F08BF20F00100B2F5E7
:1036C0007C0F38BF70470BD582F0FF0212F5803FA8
:1036D000C8BF704700F1C040D8BF00F0004070473D
:1036E00000F5000C5FEA4C0C48BF7047B0F1C040D9
:1036F00000F073B890EA010F0CEAD11348BF42F40E
:103700008072624538BF634504D280EA010000F050
:103710000040704710B500F01AF800BF8900013E64
:1037200000F007B800F009B85FEA410C5FEA1C6CD2
:1037300008D080EA010000F050B85FEA400C5FEA70
:103740001C6CF6D14FF00040A0F5800070470EF1E0
:10375000020E2EF0030E5EF8044B244204D44FEA0E
:103760004102B2F17F4F11D84FEA4003B3F17F4FCE
:103770000CD80ED14FEAD07CB2F17F4F0CEB4C0C41
:103780000CF1020C08BF4CEBD17C04E04FF0080CAC
:1037900001E04FEAD17C0CEB4C0324FA03F404F073
:1037A0000704B4F1040C06D20EEB840CBDE8104003
:1037B0004CF0010C6047DFE80CF0070802024FF004
:1037C0000040A0F5800010BD0846420018BFD2F1AD
:1037D000807288BF00F0004010BDFF2141EAD05048
:1037E000C005704790EA010F48BF81F000413FF5E6
:1037F0008AAE421A04D882F00042A0EB02001144C3
:103800004FEAD0524FF07F4C1CEA410FA2EBD1534C
:1038100018BF9CEA026F4AD04FF0004C4CEA0020DF
:103820004CEA012121FA03FCB0EB0C0C0FD412F08E
:10383000FE0F36D05FEA4C001DD5001240EBC2509F
:1038400038BF70471CF03F0F18BF70470BE0A2F164
:1038500001025FEA1C2040EBC25038BF70471CF0E9
:103860007F0F18BF7047C3F12003994014BF401E5B
:1038700020F00100704780084FEA122308BF70470C
:10388000B0FA80FCA2EB0C02CCF1280C60FA0CF030
:1038900093EA122F04BF00EBC25070474FEAC37087
:1038A0007047130A5FEADC1008BF7047F6E79CEA2E
:1038B000026F04D010EA5C0F08BF0020704710B5FB
:1038C000FFF745FF40DFF63E81F000407047FCF710
:1038D000BABE000002400000000000A0000000008E
:1038E00005400000000000C8000000000C4000007F
:1038F0000000409C00000000194000000020BCBEF9
:103900000000000034400000BFC91B8E000000040E
:10391000B5400000504BCFD06607E2CF0100000059
:103920006C4100003E8251AADFEEA7340100000086
:10393000D9420000DCB5A0E23A301F97FFFFFFFF3D
:10394000B4450000FD25A0C8E9A3C14FFFFFFFFF5C
:10395000FF3F00000000008000000000FF3F00006B
:103960000000008000000000B5B1C7B0B5E7D1B9D4
:103970003D25362E326620562020456E636F6465E5
:10398000725F41203D2025642020456E636F646591
:10399000725F423D25640D0A202020456E636F64EE
:1039A00065725F43203D2025642020456E636F646F
:1039B00065725F443D25640D0A000000F839000877
:1039C0000000002094000000280100088C3A000844
:1039D0009400002034070000440100081C0000008F
:1039E00043000000F8FFFFFF0C0000000E00000085
:1039F0000F0000002E00000000000000000000008A
:103A0000000000000000000000A24A0400000000C6
:103A1000000000000102030406070809000000007E
:103A20000102030401020304060708090204060850
:103A30000000000000000000000000000000803FC7
:103A400000004040000000000000000000000000F6
:103A50000000000000000000000000000000000066
:103A60000000000000000000000001420100020010
:103A700003000400050006000700080009000A0012
:0C3A80000B000C000D000E000F001000E9
:04000005080000ED02
:00000001FF
