:020000040800F2
:10000000C007002091010008390C0008310C0008DD
:10001000350C000827070008A31C0008000000009A
:10002000000000000000000000000000291100088E
:100030002B07000800000000710F00087112000873
:10004000AB010008AB010008AB010008AB010008E0
:10005000AB010008AB010008AB010008AB010008D0
:10006000AB010008AB010008AB010008AB010008C0
:10007000AB010008AB010008AB010008AB010008B0
:10008000AB010008AB010008AB010008AB010008A0
:10009000AB010008AB010008AB010008AB01000890
:1000A000AB010008AB010008AB010008AB01000880
:1000B000151500082D15000845150008AB010008AE
:1000C000AB010008AB010008AB010008AB01000860
:1000D000AB010008811A0008AB010008AB01000861
:1000E000AB010008AB010008AB01000800F002F80A
:1000F00000F03FF80AA090E8000C82448344AAF183
:100100000107DA4501D100F034F8AFF2090EBAE880
:100110000F0013F0010F18BFFB1A43F0010318473B
:100120005825000078250000103A24BF78C878C10F
:10013000FAD8520724BF30C830C144BF04680C60ED
:10014000704700000023002400250026103A28BF35
:1001500078C1FBD8520728BF30C148BF0B60704739
:10016000642900F06B80002070471FB51FBD10B5DB
:1001700010BD00F0B1F91146FFF7F7FF01F05CFF89
:1001800000F0CFF903B4FFF7F2FF03BC01F08FFEDC
:100190000948804709480047FEE7FEE7FEE7FEE71B
:1001A000FEE7FEE7FEE7FEE7FEE7FEE70448054957
:1001B000054A064B7047000075120008ED00000864
:1001C000C0010020C0070020C0030020C0030020A1
:1001D000704700000FB4044910B503AA029800F05C
:1001E0004DF910BC5DF814FB3000002070B50446DA
:1001F00085690068C10601D5302600E02026C007C9
:1002000007D070BDD4E9012130469047206A401CD8
:1002100020626D1EF6D570BD70B504468569007804
:10022000C00707D170BDD4E9012120209047206A82
:10023000401C20626D1EF6D570BD00002DE9F04116
:100240000646002410687529314616A510D0AFF374
:100250000080002802DA404213A507E031688A07CF
:1002600001D512A502E0490704D511A5012401E03A
:10027000AFF3008000210A2206F1240709E0B0FB59
:10028000F2FCB0FBF2F302FB1C003030785418464D
:10029000491C0028F3D123462A463046BDE8F041E8
:1002A00000F093B8000000002D0000002B000000BB
:1002B000200000002DE9F0474FF0000A894604466F
:1002C000C0F820A02046E1688847002876D025287D
:1002D00006D0D4E901219047206A401C2062F1E752
:1002E000E168204600258847C4F81CA00646002780
:1002F000C4F818A02A2E09D0304601F0D1FD38B339
:1003000004EB8708303EC8F8186019E059F8041B60
:10031000204604EB87029161E1688847012F064679
:1003200018D1E069002820DA25F020051DE0D8F872
:10033000180000EB800006EB40003038C8F81800C9
:100340002046E1688847064601F0AAFD0028EED164
:10035000012F0AD02E2E08D12046E16888477F1C45
:100360000646022F45F02005C4DBA069002803DA09
:10037000404245F00105A061E80701D025F01005D5
:10038000B6B1A6F14100192802D8203645F400651F
:100390004A463146204625604D46FFF7E1FE58B1FA
:1003A000012806D0ED1D25F0070000F1080989E7B6
:1003B00004E005F1040985E730468AE7206ABDE8D4
:1003C000F08770477047704770472DE9F0470D463A
:1003D00099469246044600F124080168880604D52F
:1003E000E06921F01001216000E00120A84201DD58
:1003F000471B00E00027A1697A1902EB0900081ADF
:10040000A0612078C00602D42046FFF7EFFE002648
:1004100008E0D4E901211AF806009047206A401C40
:10042000761C20624E45F4DB2078C0060AD52046B3
:10043000FFF7DCFE06E0D4E9012130209047206A76
:10044000401C2062381EA7F10107F4DC07E0D4E964
:10045000012118F805009047206A401C2062281EE0
:10046000A5F10105F3DC2046FFF7D6FE2078000653
:1004700002D50220BDE8F0870120FBE7074B70B5ED
:100480000D467B4400F011F80446284600F020F8A1
:1004900010B14FF0FF3070BD204670BD971B0000BB
:1004A00001694A1C02610878704700B58FB0CDE938
:1004B00001310021059105497944CDE90310114628
:1004C0006846FFF7F7FE0FB000BD0000E5FFFFFF35
:1004D000007B00F080007047754600F02BF8AE46B8
:1004E00005006946534620F00700854618B020B540
:1004F000FFF75CFEBDE820404FF000064FF000071C
:100500004FF000084FF0000B21F00701AC46ACE8BB
:10051000C009ACE8C009ACE8C009ACE8C0098D4628
:10052000704710B50446AFF300802046BDE8104088
:10053000FFF728BE004870475C01002021B18268A7
:1005400042F00102826003E0826822F001028260D0
:100550007047000010B504461248844208D10121BA
:10056000401500F033FD0021601500F02FFD17E06D
:100570000D48844208D10121001500F027FD00211B
:10058000201500F023FD0BE00848844208D101212A
:10059000C80300F01BFD00214FF4004000F016FDE1
:1005A00010BD00000024014000280140003C014033
:1005B000014600208A6802F004020AB1012000E02E
:1005C000002070470146C86C80B270470246002088
:1005D00013680B400BB1012000E00020704701467A
:1005E00000208A6802F008020AB1012000E0002021
:1005F0007047000030B502460020002350680F4CC1
:1006000020400D790C6844EA05242043506090682E
:100610000B4C2040D1E902542C434D7944EA450467
:1006200020439060D06A20F470000C7C641EE4B219
:10063000234340EA0350D06230BD0000FFFEF0FFCC
:10064000FDF7F1FFF0B504460D4600200021092D0D
:1006500011DDE068A5F10A0606EB4607072606FA53
:1006600007F18843A5F10A0606EB460603FA06F1F0
:100670000843E0600CE0206905EB4507072606FA11
:1006800007F1884305EB450603FA06F108432061AC
:10069000072A0FDA606B561E06EB86071F2606FA3E
:1006A00007F18843561E06EB860605FA06F1084355
:1006B000606322E00D2A0FDA206BD61F06EB860757
:1006C0001F2606FA07F18843D61F06EB860605FAB1
:1006D00006F10843206310E0E06AA2F10D0606EB84
:1006E00086071F2606FA07F18843A2F10D0606EBDE
:1006F000860605FA06F10843E062F0BD816841F024
:1007000008018160704721B1826842F4A0028260D2
:1007100003E0826822F4A00282607047816841F0A1
:1007200004018160704700BFFEE7704700B587B0E5
:100730000121084600F02AFC0121052000F036FCCA
:1007400001212A4800F0D0F90121294800F0CCF914
:100750004FF40040ADF8000004208DF80300694616
:10076000244800F035F90820ADF8000004208DF889
:1007700003006946204800F02BF904A801F076F93F
:100780000020ADF810004FF6FF70ADF81400002007
:10079000ADF81600ADF8120004A94FF0804001F04A
:1007A00013F900231A4603214FF0804000F0F1FEB8
:1007B00001A800F065FF0A20ADF80C0001A9400770
:1007C00000F008FF0121880700F0D4FE0122114645
:1007D000900700F05EFF00214FF0804001F0C6F866
:1007E0000121880700F0C9FE07B000BD0003180012
:1007F0000004300000080140000C014000B587B043
:100800000121022000F0C2FB0121042000F0CEFBF8
:10081000C020ADF8000004208DF8030069461C4894
:1008200000F0D6F804A801F021F90020ADF810007E
:100830004FF6FF70ADF814000020ADF81600ADF8CB
:10084000120004A9134801F0BFF800231A4603213F
:10085000104800F09EFE01A800F012FF0A20ADF83B
:100860000C0001A90B4800F0B5FE0121094800F079
:1008700081FE01221146074800F00BFF00210548C8
:1008800001F074F80121034800F077FE07B000BDC5
:10089000000801400004004000B587B00121042099
:1008A00000F074FB0121082000F080FBC020ADF8AF
:1008B000000004208DF8030069461C4800F088F809
:1008C00004A801F0D3F80020ADF810004FF6FF7037
:1008D000ADF814000020ADF81600ADF8120004A920
:1008E000134801F071F800231A460321104800F064
:1008F00050FE01A800F0C4FE0A20ADF80C0001A9CA
:100900000B4800F067FE0121094800F033FE012288
:100910001146074800F0BDFE0021054801F026F809
:100920000121034800F029FE07B000BD000C014082
:100930000008004000B587B00121480300F036FBF5
:100940000121102000F032FBC020ADF8000004208F
:100950008DF8030069461C4800F03AF804A801F03D
:1009600085F80020ADF810004FF6FF70ADF81400C8
:100970000020ADF81600ADF8120004A9134801F0EC
:1009800023F800231A460321104800F002FE01A8B4
:1009900000F076FE0A20ADF80C0001A90B4800F02B
:1009A00019FE0121094800F0E5FD01221146074822
:1009B00000F06FFE0021054800F0D8FF0121034838
:1009C00000F0DBFD07B000BD001001400034014025
:1009D0002DE9F041024600250026002000230024D6
:1009E000002791F803C00CF00F0591F803C00CF03C
:1009F000100CBCF1000F03D091F802C04CEA0505C1
:100A000091F800C0BCF1000F31D0146800202BE039
:100A10004FF0010C0CFA00F3B1F800C00CEA030629
:100A20009E4220D183004FF00F0C0CFA03F7BC4319
:100A300005FA03FC4CEA040491F803C0BCF1280F4A
:100A400006D14FF0010C0CFA00FCC2F814C00AE009
:100A500091F803C0BCF1480F05D14FF0010C0CFA1E
:100A600000FCC2F810C0401C0828D1D31460B1F8B3
:100A700000C0BCF1FF0F34DD546800202EE000F10F
:100A8000080C4FF0010808FA0CF3B1F800C00CEAAA
:100A900003069E4221D183004FF00F0C0CFA03F79E
:100AA000BC4305FA03FC4CEA040491F803C0BCF112
:100AB000280F05D100F1080C08FA0CF8C2F81480D0
:100AC00091F803C0BCF1480F07D100F1080C4FF0BA
:100AD000010808FA0CF8C2F81080401C0828CED390
:100AE0005460BDE8F0810000F0B50A460023002400
:100AF0000021002500F00046B6F1004F02D11D4E46
:100B0000F16901E01B4E7168C0F3034583B200F444
:100B10004016B6F5401F08D121F07061154E766879
:100B200026F07066134F7E6012E000F48016B6F572
:100B3000801F06D1032606FA05F4A14341F0706137
:100B400006E0460D360103FA06F6B14341F0706146
:100B500022B1460D360103FA06F6314300F0004695
:100B6000B6F1004F02D1034EF16101E0014E716018
:100B7000F0BD000000000140416170470161704715
:100B800010B504460723012221460948FFF75AFD04
:100B900001210748FFF7B7FD00BF02210448FFF716
:100BA00015FD0028F9D00248FFF70CFD10BD00002C
:100BB000002401402DE9F04107460C46002500269F
:100BC00008E03846FFF7DCFF0544052001F0DAF9BC
:100BD000701CC6B2A642F4DBB5FBF4F080B2BDE8EF
:100BE000F081000008B50121182000F0DFF943F280
:100BF0000300ADF8000010208DF8030003208DF8ED
:100C0000020069460848FFF7E3FE46F20600ADF829
:100C1000000010208DF8030003208DF802006946C3
:100C20000248FFF7D5FE08BD000C0140001001404E
:100C300000BFFEE700BFFEE77047000070B500216F
:100C400000230F22C47804B3154C246804F4E06434
:100C5000C4F5E064210AC1F10403CA40447804FAEF
:100C600003F184781440214309010E4C0678A15504
:100C7000047804F01F050124AC4005786D11AD0027
:100C800005F1E025C5F8004109E0047804F01F05EE
:100C90000124AC40044D0678761145F8264070BD1D
:100CA0000CED00E000E400E080E100E001460148D6
:100CB000405C704750010020002004E00021034AFE
:100CC0001154411CC8B20928F8DB704750010020BC
:100CD00038B504460120009000201C4948700120CE
:100CE00000902EE0BDF80000204018B10120184906
:100CF000086002E00020164908600120144908310C
:100D00000860322001F064F900201249C1F8BC01EA
:100D1000322001F05DF901200E49C1F8BC010846FE
:100D2000D0F8300130B109484078BDF800100843D0
:100D300006494870BDF800004FF6FF7101EA400017
:100D40000090BDF80000FF28CCDD38BD5001002028
:100D5000B48121420080214210B5FFF7ADFF00F0C1
:100D60004FF80F48C0780E49097940EA01200D4933
:100D7000088000240FE00C4810F81400401E0121E8
:100D800001FA00F007490988084010B9601CC0B298
:100D900010BD601CC4B2102CEDDB0020F8E7000091
:100DA0005001002064000020680000201148806984
:100DB00040F008000F4988610F48006820F4702057
:100DC0000D4908600846006840F4002008600948A2
:100DD000806940F008000749886107480068C0F34F
:100DE00013000549086008460068044908430249A1
:100DF0000860704700100240040C014000003033CE
:100E00001CB50020019001200090002024490860BA
:100E100024490878FFF75CFF22494878FFF758FF1C
:100E20000220019033E00120009024E001201C49C1
:100E3000091D086000201C49C1F8BC01322001F0E6
:100E4000C7F801201849C1F8BC010846D0F83001A4
:100E500050B116489DF80410405CBDF800100843DE
:100E600012499DF804208854BDF800004FF6FF7128
:100E700001EA40000090BDF80000FF28D6DD3220D6
:100E800001F0A6F89DF80400401CC0B201909DF846
:100E900004000928C7DB0120014908601CBD0000CF
:100EA000B8812142660000200080214250010020CC
:100EB00030B589B005460C460121042000F076F8D3
:100EC0000121082000F062F818208DF823000F207F
:100ED000ADF8200003208DF8220008A92248FFF772
:100EE00077FDADF81850ADF814400020ADF81A00A9
:100EF000ADF8160005A91D4800F066FD6020ADF8AC
:100F000004000020ADF80A00ADF80C000120ADF897
:100F1000060001A9154800F0C5FB01A9134800F01F
:100F200017FC01A9114800F073FC01A90F4800F05B
:100F3000C9FC08210D4800F001FC08210B4800F015
:100F400059FC0821094800F0B3FC0821074800F0CB
:100F5000F7FC0121054800F001FB0121034800F0E6
:100F60000CFB09B030BD000000080140000C00403F
:100F70007047000001460020034A506820F44040BA
:100F800008435060704700000010024029B1064A33
:100F9000D2690243044BDA6104E0034AD269824316
:100FA000014BDA61704700000010024029B1064A87
:100FB00092690243044B9A6104E0034A92698243B6
:100FC000014B9A61704700000010024029B1064AA7
:100FD000D2680243044BDA6004E0034AD2688243D9
:100FE000014BDA60704700000010024030B500216C
:100FF0000022002400232D4D6D6805F00C0121B165
:10100000042905D0082923D105E0294D056022E0F7
:10101000274D05601FE0254D6D6805F47012234DC6
:101020006D6805F48034022505EB92421CB9214D10
:10103000554305600BE01D4D6D6805F400351DB18D
:101040001C4D5543056002E0194D5543056002E013
:10105000174D056000BF00BF144D6D6805F0F0012D
:101060000909154D6B5C0568DD4045600F4D6D68E5
:1010700005F4E061090A104D6B5C4568DD40856050
:101080000A4D6D6805F46051C90A0B4D6B5C4568EB
:10109000DD40C560054D6D6805F44041890B074D85
:1010A0006B5CC568B5FBF3F5056130BD001002400F
:1010B00000127A0000093D001800002028000020DE
:1010C000014602290CD0032913D0042918D008297D
:1010D0001DD1124A128810B20022104B1A8018E05B
:1010E0004FF08042928C10B200224FF080439A84DD
:1010F0000FE00B4A128810B20022094B1A8008E058
:10110000084A128810B20022064B1A8001E0002023
:1011100000BF00BF002800DA40427047243401407D
:101120002404004024080040704710B500F002F885
:1011300010BD00000CB500200190009033480068FD
:1011400040F480303149086000BF3048006800F446
:10115000003000900198401C0190009818B9019847
:10116000B0F5A06FF1D12948006800F4003010B14B
:101170000120009001E0002000900098012843D158
:101180002348006840F010002149086008460068C4
:1011900020F0030008600846006840F00200086084
:1011A0001A4840681949486008464068486008463F
:1011B000406840F4806048600846406820F47C1035
:1011C00048600846406840F4E810486008460068F7
:1011D00040F08070086000BF0C48006800F00070AC
:1011E0000028F9D00948406820F00300074948600A
:1011F0000846406840F00200486000BF034840686D
:1012000000F00C000828F9D10CBD000000100240CD
:10121000002002402DE9F04104460D4616461F46C7
:10122000A1B2084800F099FBA9B2064800F097FB6C
:10123000B1B2044800F095FBB9B2024800F093FB4C
:10124000BDE8F081000C0040042808D14FF0E021F7
:10125000096941F004014FF0E022116107E04FF00D
:10126000E021096921F004014FF0E022116170478B
:101270007047000010B51348006840F001001149A4
:10128000086008464068104908400E494860084612
:1012900000680E4908400B4908600846006820F4C1
:1012A000802008600846406820F4FE0048604FF443
:1012B0001F008860FFF739FF4FF0006004490860A5
:1012C00010BD0000001002400000FFF8FFFFF6FE16
:1012D00008ED00E0F0B50C46154600220021068C12
:1012E0004FF6FE773E400684028B018C4FF60C765B
:1012F00032407E1C06EA03162E433243104EB042A3
:101300000ED0104EB0420BD0B0F1804F08D00E4E30
:10131000B04205D00D4EB04202D00D4EB04206D1C3
:101320004FF6FD76314044F00106314305E04FF6BB
:10133000F576314044F00106314302830184F0BD6B
:10134000002C01400034014000040040000800402F
:10135000000C0040F0B50C46154600220021002686
:10136000078C4FF6EF7C07EA0C070784028B018C91
:101370004FF6FF7707EA041640F6FF473A404FF66C
:10138000FF7707EA03373A434FF6FF7707EA052767
:101390003A43114FB8420ED0104FB8420BD0B0F1C3
:1013A000804F08D00E4FB84205D00E4FB84202D041
:1013B0000D4FB84206D14FF6DF77394046F010079F
:1013C000394305E04FF65F77394044F01007394361
:1013D00002830184F0BD0000002C01400034014074
:1013E0000004004000080040000C0040F0B50C462E
:1013F0001546002200210026078C4FF6FF6C07EAF5
:101400000C070784828B018C4FF6FF7707EA0426CE
:101410004FF60C773A404FF6FF7707EA03172F4352
:101420003A43114FB8420ED0104FB8420BD0B0F132
:10143000804F08D00E4FB84205D00E4FB84202D0B0
:101440000D4FB84206D14FF6FF57394046F480772A
:10145000394305E04FF2FF57394044F48077394370
:1014600082830184F0BD0000002C01400034014063
:101470000004004000080040000C0040F0B50C469D
:101480001546002200210026078C4EF6FF7C07EA55
:101490000C070784828B018C4FF6FF7707EA04362E
:1014A00040F6FF473A404FF6FF7707EA05273A43F1
:1014B0004FF6FF7707EA03373A43114FB8420ED091
:1014C000104FB8420BD0B0F1804F08D00E4FB84249
:1014D00005D00E4FB84202D00D4FB84206D14DF69E
:1014E000FF77394046F48057394305E047F6FF5708
:1014F000394044F48057394382830184F0BD0000B1
:10150000002C01400034014000040040000800406D
:10151000000C00404FF08040008A4FF08040008A6D
:1015200020F001004FF08041088270470448008895
:101530000348008820F0010001490880704700003E
:1015400010040040044800880348008820F001008F
:1015500001490880704700001008004021B102884E
:1015600042F08002028004E002884FF67F731A4046
:1015700002807047CA430282704721B1028842F05C
:101580000102028004E002884FF6FE731A400280D6
:101590007047F0B50C4615461E4600210022002378
:1015A0000189028B038C4FF6F877394021434FF6BF
:1015B000FC473A4040F201173A434FF6DD773B4093
:1015C0004FF6FF7707EA06172F433B43018102835B
:1015D0000384F0BD70B505460C46244885420ED004
:1015E000234885420BD0B5F1804F08D02148854271
:1015F00005D02148854202D02048854200D100E034
:1016000000BF208850B92389A28861882846FFF747
:1016100061FEE188284600F0ABF925E02088042827
:101620000AD12389A28861882846FFF793FEE188C2
:10163000284600F0A6F917E0208808280AD1238957
:10164000A28861882846FFF7D1FEE188284600F08D
:10165000A5F909E02389A28861882846FFF70EFFD3
:10166000E188284600F0A3F970BD0000002C01407D
:10167000003401400004004000080040000C00401D
:10168000002101804180012181800021C1800181F0
:1016900070471AB183890B43838102E083898B43AE
:1016A0008381704770B5002400220023058C4FF61B
:1016B000FE7635400584028C8388048B4FF68F7547
:1016C0002C40B51E2C400D882C43751E2A400D89D8
:1016D0002A434D882A43144DA8420BD0134DA842EB
:1016E00008D0134DA84205D0124DA84202D0124D89
:1016F000A84213D14FF6F7752A404D892A434FF679
:10170000FB752A408D882A434FF6FF652B404FF624
:10171000FF552B408D892B43CD892B438380048338
:10172000CD888586028470BD002C014000340140C4
:101730000040014000440140004801400A460021A9
:10174000018B4FF6F7731940114301837047000076
:1017500070B5002400220023058C4FF6EF7635404B
:101760000584028C8388048B48F6FF752C404FF665
:10177000FF452C400D884FF6FF7606EA05252C43E1
:101780004FF6DF752A400D8906EA05152A434D8874
:1017900006EA05152A43154DA84202D0144DA84269
:1017A0001DD14FF67F752A404D894FF6FF7606EA28
:1017B00005152A434FF6BF752A408D8806EA0515A0
:1017C0002A434FF6FF352B404FF2FF752B408D8992
:1017D00006EA85052B43CD8906EA85052B438380E0
:1017E0000483CD880587028470BD0000002C014071
:1017F000003401400A460021018B4FF2FF7319406B
:101800004FF6FF7303EA0223194301837047000078
:1018100070B5002400220023058C4FF6FF6635408A
:101820000584028C8388848B4FF68F752C404FF68D
:10183000FC752C400D882C434FF6FF552A400D892E
:101840004FF6FF7606EA05252A434D8806EA052568
:101850002A43154DA84202D0144DA8421DD14FF283
:10186000FF752A404D894FF6FF7606EA05252A4383
:101870004FF6FF352A408D8806EA05252A434EF6A5
:10188000FF752B404DF6FF752B408D8906EA051537
:101890002B43CD8906EA05152B4383808483CD88AD
:1018A0008587028470BD0000002C01400034014097
:1018B0000A460021818B4FF6F7731940114381834B
:1018C0007047000070B5002200230024058C4EF6FE
:1018D000FF7635400584038C8488828B48F6FF753B
:1018E0002A404FF6FF452A400D884FF6FF7606EA5C
:1018F00005252A434DF6FF752B400D8906EA05356F
:101900002B434D8806EA05352B430B4DA84202D0E8
:101910000A4DA84208D14BF6FF752C408D894FF631
:10192000FF7606EA85152C4384808283CD88A0F853
:101930004050038470BD0000002C01400034014081
:101940000A460021818B4FF2FF7319404FF6FF7357
:1019500003EA022319438183704781867047018718
:10196000704781877047A0F84010704781847047A6
:10197000028B4FF6F3731A400283028B0A430283F1
:101980007047028B4FF2FF331A400283028B4FF6EF
:10199000FF7303EA01231A4302837047828B4FF6D9
:1019A000F3731A408283828B0A4382837047828B4F
:1019B0004FF2FF331A408283828B4FF6FF7303EAA4
:1019C00001231A4382837047002202881D4B9842EC
:1019D0000ED01D4B98420BD0B0F1804F08D01B4B5E
:1019E000984205D01A4B984202D01A4B984204D123
:1019F0004FF68F731A404B881A43174B984207D003
:101A0000164B984204D04FF6FF431A40CB881A4336
:101A100002808B8883850B8803850A4B98420BD004
:101A2000094B984208D00E4B984205D00D4B984276
:101A300002D00D4B984201D10B7A03860123838299
:101A400070470000002C01400034014000040040B9
:101A500000080040000C004000100040001400404E
:101A60000040014000440140004801404FF6FF7132
:101A7000818000210180C180418001727047000097
:101A800010B540F225511D4800F04AF810B31B482C
:101A900000F002F9C4B21A48008800F40040C8B946
:101AA0001748008800F4804060B10A2C03D0002061
:101AB0001349088020E01248008840F40040104993
:101AC000088019E00D2C06D10D48008840F48040B4
:101AD0000B49088010E00A480088C0F30D0009494E
:101AE0000C5407480088401C0549088008460088B7
:101AF000C72801DD0020088010BD0000003801402B
:101B0000340000208800002021B1828942F4005274
:101B1000828104E082894DF6FF731A40828170470A
:101B200070B50246002400230025002040F66A1606
:101B3000B14200D100BFC1F3421501F01F030126DD
:101B400006FA03F3012D02D19689334006E0022DF7
:101B500002D1168A334001E0968A33400C120126E6
:101B600006FA04F41688344013B10CB1012000E0E9
:101B7000002070BDF0B5034600240026002500209B
:101B800040F66A17B94200D100BF1846C1F34214AB
:101B900001F01F06012707FA06F5012C01D10C30D0
:101BA00004E0022C01D1103000E014301AB10768B3
:101BB0002F43076002E00768AF430760F0BD0000F5
:101BC0002DE9F04786B005460E460024A24600BF28
:101BD000A1460027B08900B100BF2F462C8A4CF6E1
:101BE000FF700440F08804432C82AC894EF6F31059
:101BF0000440B08831890843718908430443AC81AB
:101C0000AC8A4FF6FF400440B0890443AC8201A87F
:101C1000FFF7ECF91F48874202D1DDF810A001E080
:101C2000DDF80CA0A88900F4004040B10AEBCA001E
:101C300000EB0A1031684900B0FBF1F807E00AEB4D
:101C4000CA0000EB0A1031688900B0FBF1F864208B
:101C5000B8FBF0F004012009642101FB1089A88978
:101C600000F4004040B1322000EBC900B0FBF1F0BD
:101C700000F00700044308E0322000EB0910642163
:101C8000B0FBF1F000F00F0004432C8106B0BDE87A
:101C9000F08700000038014001468888C0F3080042
:101CA000704700BFFEE700002DE9F84F05460E46DD
:101CB000AC1B204600F072FB83461D480168584665
:101CC00000F098FB81461B490968601A00F066FB2A
:101CD000834619480168584600F08CFB8246494605
:101CE00000F0DEFA80461548006800F057FB4146D8
:101CF000009000F0D5FA074600F034FB0F49086069
:101D00000C48046008460068B0F5E15F03DD4FF45D
:101D1000E150086007E00948006810F5E15F02DA69
:101D200007480649086005480068BDE8F88F0000CC
:101D30003C00002048000020380000204400002023
:101D4000E0E3FFFF2DE9F84F05460E46AC1B2046A9
:101D500000F024FB834614480168584600F04AFB13
:101D6000814612490968601A00F018FB8346104842
:101D70000168584600F03EFB8246494600F090FA62
:101D800080460C48006800F009FB4146009000F0D6
:101D900087FA074600F0E6FA06490860034804603F
:101DA00008460068BDE8F88F3C0000205000002085
:101DB000380000204C0000202DE9F84F05460E4663
:101DC000AC1B204600F0EAFA8346144801685846E6
:101DD00000F010FB814612490968601A00F0DEFA33
:101DE000834610480168584600F004FB8246494685
:101DF00000F056FA80460C48006800F0CFFA4146E1
:101E0000009000F04DFA074600F0ACFA0649086071
:101E10000348046008460068BDE8F88F3C000020D5
:101E20005800002038000020540000202DE9F84F11
:101E300005460E46AC1B204600F0B0FA8346144817
:101E40000168584600F0D6FA814612490968601ABE
:101E500000F0A4FA834610480168584600F0CAFA18
:101E60008246494600F01CFA80460C48006800F0A3
:101E700095FA4146009000F013FA074600F072FA16
:101E8000064908600348046008460068BDE8F88F0A
:101E90003C00002060000020380000205C00002092
:101EA00030380A2801D201207047002070470146CF
:101EB00000BF704700B587B001214FF40170FFF7F4
:101EC00075F82020ADF8180000208DF81B0006A939
:101ED0001948FEF77DFD4FF40040FFF74BF8174817
:101EE000FEF738FB002001908DF808008DF80900FE
:101EF0004FF4602003900020049001208DF814001E
:101F000001A90E48FEF776FB01210C48FEF716FBEF
:101F10000A48FEF7F3FB00BF0848FEF760FB002805
:101F2000FAD10648FEF7FAFB00BF0448FEF740FB73
:101F30000028FAD107B000BD00080140002401408C
:101F400010B56FF00400FFF77FF90A4800680A49EE
:101F5000B0FBF1F0094908700846007800EB400139
:101F6000C1EBC0104FF6FF7101EAC00004490880C0
:101F700010BD00000400002000127A002C00002098
:101F80002E0000200146114A12884A434FF0E023F8
:101F90005A6100229A611A46126942F001021A61DE
:101FA00000BF4FF0E022106900F001021AB100F406
:101FB0008032002AF5D04FF0E022126922F00102AF
:101FC0004FF0E0231A6100229A6170472E00002032
:101FD0000146114A12784A434FF0E0235A61002229
:101FE0009A611A46126942F001021A6100BF4FF06D
:101FF000E022106900F001021AB100F48032002AD8
:10200000F5D04FF0E022126922F001024FF0E023F8
:102010001A6100229A6170472C00002000BF054A17
:10202000128802F04002002AF9D0C2B2014B1B1DF7
:102030001A8070470038014088B00025002600272C
:10204000A846FFF717F9FFF77BFFFEF7CBFD4FF42C
:10205000E13000F0D5F8FFF72DFF002141F61F40D9
:10206000FEF726FFFEF766FCFEF760FBFEF7C6FBF9
:10207000FEF712FCFEF79AFE59E0FEF76DFE0446ED
:10208000002000F06FF80A210520FEF793FD05906F
:10209000059800F09BF981460820FFF711F8824669
:1020A0000220FFF70DF883460320FFF709F8079099
:1020B0000420FFF705F8069051461D480068FFF719
:1020C000F3FD054659461A480068FFF73BFE0646F1
:1020D000174807990068FFF76FFE074614480699EE
:1020E0000068FFF7A3FE804643463A46314628463D
:1020F000FFF790F81CB121460EA0FEF76BF8062002
:10210000FEF7D4FD81460520FEF7D0FD049008209F
:10211000FEF7CCFD03900720FEF7C8FDCDF8009038
:10212000029001460AA0DDE90323FEF753F8A4E775
:102130000000002020200D0A202020256420206996
:102140007320207072657373656420200D0A00008F
:102150002025356420253564202535642025356407
:102160000D0A000010B50446012C1FD1810322483E
:10217000FEF704FD61032048FEF7FEFC61031F48E3
:10218000FEF7FCFC21031D48FEF7F6FC02211B486C
:10219000FEF7F4FC01211948FEF7EEFC0221164877
:1021A000FEF7ECFC04211448FEF7E6FC1CBB4FF4E0
:1021B00000511148FEF7E2FC4FF480410E48FEF753
:1021C000DBFC4FF480510D48FEF7D8FC4FF4005172
:1021D0000A48FEF7D1FC01210848FEF7CFFC022196
:1021E0000648FEF7C9FC04210348FEF7C7FC02219C
:1021F0000148FEF7C1FC10BD00100140000C014079
:1022000010B586B00446012144F20400FEF7CEFE6C
:102210004FF40070ADF8140003208DF8160018205C
:102220008DF8170005A91C48FEF7D2FB4FF480601B
:10223000ADF8140004208DF8170005A91648FEF724
:10224000C7FB25208DF8000003208DF801008DF8D4
:10225000020001208DF803006846FEF7EFFC0194B0
:102260000020ADF80800ADF80A00ADF80C00ADF89C
:1022700010000C20ADF80E0001A90848FFF7A0FCE3
:10228000012240F225510548FFF774FC0121034863
:10229000FFF73AFC06B010BD0008014000380140CD
:1022A00090EA010F48BF81F0004100F17681421AA7
:1022B0003CBF801A89184FEAD0524FF07F4C1CEA7D
:1022C000410FA2EBD15318BF9CEA026F00F03B8094
:1022D0004FF0004C4CEA00204CEA012121FA03FCAB
:1022E00010EB0C0C1ED202F1FF325FEA1C2040EB17
:1022F000C25038BF70471CF07F0F4FEA400C18BF28
:10230000BCF17F4F38BF7047C3F12003994008BF2D
:1023100020F00100BCF17F4F38BF7047A0F1C040F2
:1023200000F02FB94FEA3C00000A40EBC25028BF32
:102330001CF0FF0F4FEA400CE6D018BFBCF17F4FF6
:1023400038BF7047EAE79CEA026F05D010EA5C0FDD
:1023500008BF00F00040704710B500F0CCF800BF97
:1023600064FBBE3E41000B0ED3F19E0208D950F42F
:1023700000034FEA032323FA02F048BF40427047AC
:1023800010B500F0B8F800BF4992248000207047D3
:102390006FF0004282EA20007047000010F0004118
:1023A00048BF4042B0FA80F310FA03F2C3F19D0334
:1023B0000BD051EAC35101EB1220530638BF7047CE
:1023C00000F1010008BF20F001007047B0FA80F36F
:1023D00010FA03F2C3F19D030AD0D90501EB1220D4
:1023E000530638BF704700F1010008BF20F001001C
:1023F000704700004FF47F0C1CEAD0121EBF1CEA8D
:10240000D11392EA0C0F93EA0C0F00F0478090EA88
:10241000010F48BF42F480724FF0004C4CEA00209C
:102420004CEA012102EB0302A0FB0113A2F500021A
:10243000002918BF43F001035B0028BF4FEA3303B4
:1024400042EB22425FEA132C4CEBC2502EBFBCEB96
:10245000436FB2F57C0F70474FEA036CBCF1004F3D
:1024600008BF20F00100B2F57C0F38BF70470BD5D4
:1024700082F0FF0212F5803FC8BF704700F1C040F4
:10248000D8BF00F00040704700F5000C5FEA4C0C2C
:1024900048BF7047B0F1C04000F073B890EA010F38
:1024A0000CEAD11348BF42F48072624538BF6345DD
:1024B00004D280EA010000F00040704710B500F03F
:1024C0001AF800BF8900013E00F007B800F009B813
:1024D0005FEA410C5FEA1C6C08D080EA010000F062
:1024E00050B85FEA400C5FEA1C6CF6D14FF0004038
:1024F000A0F5800070470EF1020E2EF0030E5EF87C
:10250000044B244204D44FEA4102B2F17F4F11D868
:102510004FEA4003B3F17F4F0CD80ED14FEAD07C85
:10252000B2F17F4F0CEB4C0C0CF1020C08BF4CEBE2
:10253000D17C04E04FF0080C01E04FEAD17C0CEBB9
:102540004C0324FA03F404F00704B4F1040C06D29B
:102550000EEB840CBDE810404CF0010C6047DFE846
:102560000CF0070802024FF00040A0F5800010BDFB
:102570000846420018BFD2F1807288BF00F00040C8
:1025800010BDFF2141EAD050C005704790EA010F0D
:1025900048BF81F000413FF58AAE421A04D882F06C
:1025A0000042A0EB020011444FEAD0524FF07F4CA2
:1025B0001CEA410FA2EBD15318BF9CEA026F4AD02C
:1025C0004FF0004C4CEA00204CEA012121FA03FCB8
:1025D000B0EB0C0C0FD412F0FE0F36D05FEA4C00BB
:1025E0001DD5001240EBC25038BF70471CF03F0FA2
:1025F00018BF70470BE0A2F101025FEA1C2040EB1C
:10260000C25038BF70471CF07F0F18BF7047C3F12E
:102610002003994014BF401E20F00100704780083D
:102620004FEA122308BF7047B0FA80FCA2EB0C02FD
:10263000CCF1280C60FA0CF093EA122F04BF00EBE7
:10264000C25070474FEAC3707047130A5FEADC104C
:1026500008BF7047F6E79CEA026F04D010EA5C0FEF
:1026600008BF0020704710B5FFF745FF40DFF63E7A
:1026700081F000407047000098260008000000200C
:10268000880000002801000820270008880000209A
:102690003807000044010008F401000000A24A04C9
:1026A0000000000000000000010203040607080902
:1026B00000000000010203040102030406070809E8
:1026C00002040608000000000000000000000000F6
:1026D0000000803F000040400000000000000000BB
:1026E00000000000000000000000000000000000EA
:1026F0000000000000000000000000000000014297
:1027000001000200030004000500060007000800A5
:1027100009000A000B000C000D000E000F00100055
:04000005080000ED02
:00000001FF
