:020000040800F2
:1000000070080020CD0100081918000873140008BA
:100010005D170008D3020008ED1A00080000000078
:100020000000000000000000000000001D18000893
:10003000D5020008000000001B1800081F18000867
:10004000E7010008E7010008E7010008E7010008F0
:10005000E7010008E7010008E7010008E7010008E0
:10006000E7010008E7010008E7010008E7010008D0
:10007000E7010008E7010008E7010008E7010008C0
:10008000E7010008E7010008E7010008E7010008B0
:10009000E7010008E7010008E7010008E7010008A0
:1000A000E7010008E7010008E7010008E701000890
:1000B00085180008911800089D180008E70100083D
:1000C000E7010008E7010008E7010008E701000870
:1000D000E7010008E7010008E7010008E701000860
:1000E000E7010008E7010008E7010008E701000850
:1000F000B5180008E7010008E7010008E70100085B
:10010000E7010008E7010008E7010008E70100082F
:10011000E7010008E7010008A9180008E701000846
:10012000E7010008E7010008E7010008E70100080F
:1001300000F002F800F03AF80AA090E8000C8244BF
:100140008344AAF10107DA4501D100F02FF8AFF29C
:10015000090EBAE80F0013F0010F18BFFB1A43F0A5
:10016000010318475C1D00007C1D0000103A24BFED
:1001700078C878C1FAD8520724BF30C830C144BF0C
:1001800004680C607047000000230024002500264E
:10019000103A28BF78C1FBD8520728BF30C148BFEA
:1001A0000B6070471FB51FBD10B510BD00F058F8AB
:1001B0001146FFF7F7FF01F0ABFC00F076F803B44F
:1001C000FFF7F2FF03BC00F07DF80000094880470C
:1001D00009480047FEE7FEE7FEE7FEE7FEE7FEE729
:1001E000FEE7FEE7FEE7FEE704480549054A064B41
:1001F00070470000811800083101000870020020DB
:100200007008002070040020700400204FF00002ED
:1002100000B5134694469646203922BFA0E80C50FC
:10022000A0E80C50B1F12001BFF4F7AF090728BFD7
:10023000A0E80C5048BF0CC05DF804EB890028BF53
:1002400040F8042B08BF704748BF20F8022B11F07C
:10025000804F18BF00F8012B7047704770477047F8
:10026000754600F02BF8AE4605006946534620F06F
:100270000700854618B020B5FFF7B6FFBDE820405F
:100280004FF000064FF000074FF000084FF0000B52
:1002900021F00701AC46ACE8C009ACE8C009ACE805
:1002A000C009ACE8C0098D46704710B50446AFF3ED
:1002B00000802046BDE81040FFF781BF004870472E
:1002C0001002002001491820ABBEFEE72600020004
:1002D0007047FEE7704772B6FEE700002DE9F84F61
:1002E000DFF8C8910024A9F1040B23460F2709F178
:1002F000040AABF1040ED1E00125A54006EA05028F
:10030000AA4276D1DFF8A8C14E68A6EB0C08664574
:100310002BD00DDC032E34D005DC36B3012E19D0E2
:10032000022E2FD11BE0112E16D0122E2AD119E049
:10033000B8F5881F19D006DCB8F5803F15D0B8F5A0
:10034000801F1FD111E0B8F5001F0ED0B8F5041FB3
:1003500018D10AE0CB6815E0CB681B1D12E0CB6812
:1003600008330FE0CB680C330CE08B682BB1012B0A
:100370004FF0080303D0456104E0042302E0056167
:1003800000E00023FF2A01D8064601E000F1040640
:100390004FEA840501D9A5F12005D6F8008007FAB7
:1003A00005FC28EA0C0803FA05F548EA0508C6F832
:1003B00000804D68ED0070D53E4DAE6946F00106F7
:1003C000AE61AD6924F0030605F0010500953A4DD4
:1003D00006EB050CDCF80850A607360F07FA06F8FE
:1003E00025EA0805DFF8D480404503D14FF0000826
:1003F00025E052E0DFF8C880404502D14FF0010807
:100400001DE0DFF8C080404502D14FF0020816E041
:10041000DFF8B480404502D14FF003080FE0DFF869
:10042000AC80404502D14FF0040808E0DFF8A0801E
:10043000404502D14FF0050801E04FF0060808FAE8
:1004400006F848EA0508CCF808804D68D9F800603D
:10045000ED024D4601D5164300E096432E604D68EF
:10046000DAF80060AD02554601D5164300E0964328
:100470002E604D68DBF80060AD035D4601D5164384
:1004800000E096432E604D68DEF80060ED0375468F
:1004900001D5164300E096432E60641C0A68164698
:1004A000E2407FF429AFBDE8F88F00000804014066
:1004B000000011100010024000000140000801403F
:1004C000000C0140001001400014014000180140E0
:1004D000001C0140014880687047000000000020B7
:1004E0000248816802781144816070470000002052
:1004F000074810B5016841F010010160032000F0C9
:1005000075F80F2000F006F800F024F8002010BD68
:100510000020024070B50D4D04464FF47A712878E2
:10052000B1FBF0F00A490968B1FBF0F000F0BCFA49
:1005300048B9102C07D200222146501E00F036F890
:1005400000206C6070BD012070BD00000000002024
:100550000C0000200C4808B5816941F0010181615F
:10056000816901F001010091C16941F08051C161CF
:10057000C06900F0805000900448416821F0E061BB
:1005800041F00071416008BD0010024000000140D0
:10059000002809DB00F01F02012191404009800082
:1005A00000F1E020C0F8001170470000F0B40E4BDD
:1005B0001B680C46C3F30223C3F10705042D00D9C1
:1005C0000425191D072901D2002300E0DB1E0126A6
:1005D00006FA05F1491E214099409E40761E1640BC
:1005E0003143F0BC01F083BA0CED00E0064900F0A5
:1005F000070208684FF6FF03184040EA0220034A4A
:1006000010430860704700000CED00E00000FA05A0
:100610002DE9F0470F46050061D0434E306800F0E9
:100620000700B84209D2306820F007003843306034
:10063000306800F00700B84251D128683B4C810770
:1006400012D5400703D5606840F4E0606060287808
:10065000000703D5606840F4605060606068A96876
:1006600020F0F000084360602878C00728D0686850
:10067000012810D02168022810D0890700292EDA1D
:10068000616821F0030101436160FFF723FF8046A9
:1006900041F288390DE021688903EFE78901EDE730
:1006A000FFF718FFA0EB0801494502D90320BDE878
:1006B000F0876068696800F00C00B0EB810FEFD143
:1006C000306800F00700B8420BD9306820F007000E
:1006D00038433060306800F00700B84201D0012094
:1006E000E5E72878400705D56068E96820F4E06010
:1006F000084360602878000706D56068296920F4FF
:10070000605040EAC100606000F018F86168084A73
:10071000C1F30311515CC8400649086006480068EF
:10072000FFF7F8FE0020C2E7002002400010024060
:10073000AE1E00080C000020040000200E4A516884
:100740000E4801F00C03042B11D0082B0FD10C48DC
:10075000C1F38343C903C05C0AD55168084AC1F399
:100760004041921E515C054A5043B0FBF1F0704786
:1007700004494843704700000010024000127A000C
:100780009E1E000800093D002DE9F84F040070D0BE
:100790002078C04DC00749D06868C0F381000128A7
:1007A00007D06868C0F38100022809D16868C003D7
:1007B00006D52868800339D560680028E7D035E081
:1007C0006068B0F5803F0BD010B1B0F5A02F11D00C
:1007D000286820F480302860286820F4802002E017
:1007E000286840F480302860606890B1FFF772FE9E
:1007F00006460AE0286840F480202860F0E700BF41
:10080000FFF768FE801B642873D828688003F7D53B
:100810000CE0FFF75FFE064605E000BFFFF75AFE5B
:10082000801B6428F0D828688003F7D420789A4E7B
:1008300080074FF001094FF0000839D5686810F0C3
:100840000C0F07D06868C0F38100022809D16868DE
:10085000C00306D42868800714D52069012808D170
:1008600010E02069B0B1C6F80090FFF733FE0746EC
:1008700005E00AE1FFF72EFEC01B0228C4D8286855
:100880008007F7D52868616920F0F80040EAC100C8
:1008900028600DE0C6F80080FFF71CFE074604E064
:1008A000FFF718FEC01B022823D828688007F7D45A
:1008B000207800072CD57948A169D9B1C0F80090FB
:1008C000FFF708FE074604E0FFF704FEC01B0228FE
:1008D0000FD8686A8007F7D571484FF4FA5100685D
:1008E000B0FBF1F0009000BF0098411E0091FAD2D9
:1008F0000EE080E0C0F80080FFF7ECFD074604E062
:10090000FFF7E8FDC01B022875D8686A8007F7D496
:100910002078400760D5E8690027C00008D4E8695E
:1009200040F08050E861E869012700F080500090B5
:100930005C480168C90513D40168834641F480719D
:100940000160FFF7C7FD824606E000BFFFF7C2FD6A
:10095000A0EB0A0064284ED8DBF80000C005F5D5EE
:10096000E06801280AD008B1052813D0286A20F0D1
:1009700001002862286A20F0040002E0286A40F0A2
:1009800001002862E06841F2883B98B1FFF7A2FDC0
:1009900082460BE0286A40F004002862EEE700BFC0
:1009A000FFF798FDA0EB0A0159455AD8286A80073D
:1009B000F6D50CE0FFF78EFD824605E0FFF78AFDD5
:1009C000A0EB0A0159454CD8286A8007F6D41FB11C
:1009D000E86920F08050E861E06988B36968C1F394
:1009E0008101022944D00228C6F8608004D0FFF7B4
:1009F00071FD044638E034E0FFF76CFD074604E083
:100A0000FFF768FDC01B02282BD828688001F7D4A7
:100A1000206AB0F5803F05D16868A16820F40030F5
:100A200008436860D4E908010843696821F4741137
:100A300008436860C6F86090FFF74CFD044606E086
:100A400025E000BFFFF746FD001B022809D82868F3
:100A50008001F7D51BE000BFFFF73CFD001B02281B
:100A600002D90320BDE8F88F28688001F4D40EE095
:100A70000128F7D06868226A00F48031914204D1DD
:100A8000616A00F47010884201D00120EAE700207A
:100A9000E8E70000001002400000424280044242A9
:100AA0000C0000200070004010B5401EB0F1807FA7
:100AB00001D3012010BD4FF0E02460610F216017C9
:100AC00001F015F80020A06107202061002010BD72
:100AD0007047704770B590F83C20012A2CD0012453
:100AE00080F83C40022280F83D2003685A689D68E7
:100AF00022F070060A6832435A60104B02689A422C
:100B00000ED00F4B9A420BD0B2F1804F08D00D4B54
:100B10009A4205D00C4B9A4202D00C4B9A4204D117
:100B2000496825F080031943916080F83D40002119
:100B300080F83C10084670BD022070BD002C0140BA
:100B4000003401400004004000080040000C004058
:100B500010B5040003D094F83D0010B107E0012067
:100B600010BD002084F83C00204600F01FF8022051
:100B700084F83D00211D206800F0A2FE012084F8C9
:100B8000460084F83E0084F83F0084F8400084F872
:100B9000410084F8420084F8430084F8440084F85B
:100BA000450084F83D00002010BD000008B5006835
:100BB0000B49884212D10B48C16941F01001C16153
:100BC000C069002200F01000009001213620FFF7DC
:100BD000EDFCBDE808403620FFF7DABC08BD000098
:100BE000001000400010024090F83D10012901D093
:100BF00001207047022180F83D100168CA6842F068
:100C00000102CA6000680E4988420ED00D49884230
:100C10000BD0B0F1804F08D00B49884205D00B496A
:100C2000884202D00A49884204D1816801F0070154
:100C3000062903D0016841F00101016000207047DE
:100C4000002C014000340140000400400008004036
:100C5000000C00402DE9F0410D46040003D094F84B
:100C60003D0018B108E00120BDE8F081002084F8C3
:100C70003C00204600F040F8022084F83D00206847
:100C8000816844F2070291438160211D206800F0D1
:100C900017FE226890689169166A2B68AF69034352
:100CA00040F20330814341EA0721A868EF69084315
:100CB0004FF6FC418843E96840EA07200143286970
:100CC0002F6A000140EA0730084369686D6926F021
:100CD000220646EA0515294393602268906154F87C
:100CE000460B0162012004F81F09E0752076E076CA
:100CF0002077A0750020B7E770B586B00025009575
:100D0000019502950395006851490124514A524EBC
:100D1000B0F1804F24D0514DC023A84258D1C869AA
:100D200040F00200C861C86900F0020004908869C0
:100D300040F0040088618869694600F0040004906E
:100D4000029400931046FFF7C9FA002211461D20B5
:100D5000FFF72CFC5FF01D00FFF71AFC06B070BD1A
:100D6000C86940F00100C861C86900F00100049042
:100D7000886940F004008861886900F004000490EC
:100D8000886940F0080088618869694600F00800B9
:100D900004904FF40040009002941046FFF79EFA32
:100DA0000820CDE90005694602943046FFF796FA1F
:100DB0002B48416821F4407141F0E06141F48071B9
:100DC0004160002211461C20FFF7F0FB1C20C3E706
:100DD000244A90421CD1C86940F00400C861C86927
:100DE00000F004000490886940F008008861886978
:100DF000694600F008000490029400933046FFF723
:100E00006DFA002211461E20FFF7D0FB1E20A3E73B
:100E1000154A9042A2D1886940F4005088618869DF
:100E200000F400500490886940F0100088618869DF
:100E3000694600F010000490029400930B48FFF7FD
:100E40004DFA002211462C20FFF7B0FB2C2083E73F
:100E50000010024000080140000C01400004004066
:100E60000000014000080040003401400010014033
:100E700070B590F83E60044690F83F5090F84230CC
:100E800090F84320022021B104290ED0012E1BD15D
:100E900014E0012E18D1012B16D184F83E0084F8FD
:100EA000420001220021206820E0012D0CD1012AFE
:100EB0000AD184F83F0084F8430014E0012D03D1E7
:100EC000012B01D1012A01D0012070BD84F83E0020
:100ED00084F83F0084F8420084F843000122002196
:100EE000206800F033FD01220421206800F02EFD6F
:100EF0002068016841F001010160002070BD704769
:100F000070B50446006801694FF00005C9438907C0
:100F100015D4C168C943890711D4E91E01610120B4
:100F20002077206880698007204602D0FFF7E7FF1E
:100F300004E000F0BFF8204600F064F9257720684F
:100F40000169C943490717D4C168C943490713D484
:100F50006FF004010161022020772068806910F49D
:100F6000407F204602D0FFF7CAFF04E000F0A2F85D
:100F7000204600F047F9257720680169C943090731
:100F800016D4C168C943090712D46FF00801016182
:100F9000042020772068C0698007204602D0FFF730
:100FA000AEFF04E000F086F8204600F02BF925772C
:100FB00020680169C943C90617D4C168C943C90675
:100FC00013D46FF010010161082020772068C069F8
:100FD00010F4407F204602D0FFF791FF04E000F0BC
:100FE00069F8204600F00EF9257720680169C943A9
:100FF000C90708D1C168C943C90704D1891E016165
:10100000204600F05BF920680169C943090609D44C
:10101000C168C943090605D46FF08001016120460B
:10102000FFF756FD20680169C943490609D4C16824
:10103000C943490605D46FF040010161204600F024
:1010400017FA20680169C94389060BD4C168C943EE
:10105000890607D46FF0200101612046BDE8704089
:10106000FFF737BD70BD000000B585B000210091CD
:1010700001910291039100680B49884211D10B48FC
:10108000816941F0040181618069694600F00400D2
:1010900004900F2000900220019003900448FFF775
:1010A0001DF905B000BD0000000C0040001002401A
:1010B00000080140704770B5044690F83C000026D7
:1010C0000D4601280FD0012084F83C006AB1042AA3
:1010D0001DD0082A2FD00C2A3FD00126002084F8EA
:1010E0003C00304670BD022070BD206800F03CFC22
:1010F0002068816941F0080181612068816921F0DF
:1011000004018161206881692A69114311E0206826
:1011100000F05AFC2068816941F400618161206817
:10112000816921F480618161206881692A6941EACD
:1011300002218161D2E7206800F07CFC2068C1694F
:1011400041F00801C1612068C16921F00401C16159
:101150002068C1692A69114311E0206800F09EFCF3
:101160002068C16941F40061C1612068C16921F44E
:101170008061C1612068C1692A6941EA0221C161B7
:10118000ACE710B5040003D094F83D0010B107E0BF
:10119000012010BD002084F83C00204600F01EF81D
:1011A000022084F83D00211D206800F089FB012009
:1011B00084F8460084F83E0084F83F0084F840003C
:1011C00084F8410084F8420084F8430084F8440025
:1011D00084F8450084F83D00002010BD08B5006883
:1011E0000649884208D10648C16941F00801C16139
:1011F000C06900F00800009008BD0000000C00402D
:10120000001002407047000010B50446022249B1A8
:1012100004290ED0082913D094F84100012816D0D3
:10122000012010BD94F83E000128F9D184F83E2039
:101230000FE094F83F000128F2D184F83F2008E045
:1012400094F840000128EBD184F8402001E084F8B4
:1012500041200122206800F079FB13492068134ADD
:10126000884201D0904203D1436C43F4004343646D
:10127000206888420DD090420BD0B0F1804F08D04A
:101280000B49884205D00B49884202D00A4988425E
:1012900004D1816801F00701062903D0016841F0FB
:1012A00001010160002010BD002C0140003401400C
:1012B0000004004000080040000C00402DE9F84FF9
:1012C00002686348634C42F2107C0568B4F9080078
:1012D000411E09B2AA420DD16A6A624502D2401C7F
:1012E000208103E0686A604500D32181C5F824C0ED
:1012F000BDE8F88F584B574E1B68B6F91CB098469E
:1013000042450ED1586A604503D20BF10100A0831B
:1013100004E0D8F82400604500D32181C8F824C037
:10132000E6E74E4B1F684B4BBA42B3F930A00DD1E4
:10133000786A604503D20AF10100208603E0786AEA
:10134000604500D32181C7F824C0D1E7444B1E6813
:10135000404BB242B3F944900ED1706A604504D25A
:1013600009F10100A4F8440003E0706A604500D36D
:101370002181C6F824C0BBE73A4909688A42B7D13F
:101380002968C1F300112174696A40F27122504347
:1013900001EB0010606000902168401A00F09AFC98
:1013A000314900F0D5FB314900F0ACFCE060009819
:1013B0002060D8F80000C0F3001084F82400696AA7
:1013C00040F271220BFB02F001EB0010A061616999
:1013D0008046401A00F07EFC234900F0B9FB234907
:1013E00000F090FCC4F8148020623868C0F300104C
:1013F00084F83800696A40F271220AFB02F001EBBE
:101400000017E762A06A381A00F064FC164900F081
:101410009FFB164900F076FCA76260633068C0F35A
:10142000001084F84C00696A40F2712209FB02F056
:1014300001EB00152564E06B281A00F04BFC0A490B
:1014400000F086FB094900F05DFCE563A0644FE70E
:1014500010000020C001002058000020A000002043
:1014600078010020300100200080F7440000204176
:101470007047FEE7114808B5816941F0200181619C
:10148000816901F020010091816941F004018161CD
:10149000816901F004010091816941F010018161CD
:1014A000816901F010010091816941F008018161B9
:1014B000806900F00800009008BD000000100240A4
:1014C00010B58CB024216846FEF7A0FE0024164813
:1014D00009944FF080410A94C0E900144FF6FF715F
:1014E000C0E90241046184610320CDE900040120C8
:1014F000CDE902040A210491CDE90540CDE9074177
:1015000069460948FFF7A6FB08B1FEF7E4FE099417
:1015100009A905480A94FFF7DDFA002801D0FEF773
:10152000DAFE0CB010BD00001000002010B58CB029
:1015300024216846FEF76AFE0024164809941449DF
:101540000A94C0E900144FF6FF71C0E9024104613A
:1015500084610320CDE900040120CDE902040A21C1
:101560000491CDE90540CDE9074169460948FFF7F7
:1015700071FB08B1FEF7AFFE099409A905480A946A
:10158000FFF7A8FA002801D0FEF7A5FE0CB010BDA9
:10159000000400405800002010B58CB0242168469B
:1015A000FEF734FE00241648099414490A94C0E951
:1015B00000144FF6FF71C0E9024104618461032009
:1015C000CDE900040120CDE902040A210491CDE90E
:1015D0000540CDE9074169460948FFF73BFB08B1E3
:1015E000FEF779FE099409A905480A94FFF772FAF3
:1015F000002801D0FEF76FFE0CB010BD00080040BF
:10160000A000002010B58AB0002407941C21684671
:101610000894FEF7FBFD22482049C0E9001441F67A
:101620001F41C0E90241802104618161FFF7A9FDEA
:1016300008B1FEF750FE079407A919480894FFF770
:1016400049FA08B1FEF747FE6020CDE90004029494
:101650000022694612480494FFF72DFD08B1FEF7F9
:101660003AFE042269460E48FFF725FD08B1FEF751
:1016700032FE082269460A48FFF71DFD08B1FEF751
:101680002AFE0C2269460648FFF715FD08B1FEF751
:1016900022FE0348FFF7E8FC0AB010BD000C004032
:1016A000E80000201CB500240F4800940D49019467
:1016B000016041F61F41C0E9011442F210718461DA
:1016C000C160FFF745FA08B1FEF705FE00946946D0
:1016D00005480194FFF7FEF9002801D0FEF7FBFD55
:1016E0001CBD0000001000403001002010B58CB07F
:1016F00024216846FEF78AFD0024174809941549FD
:101700000A94C0E900144FF6FF71C0E90241046178
:10171000446184610320CDE900040120CDE9020485
:101720000A210491CDE90540CDE9074169460A48FF
:10173000FFF790FA08B1FEF7CEFD099409A9064813
:101740000A94FFF7C7F9002801D0FEF7C4FD0CB0DA
:1017500010BD00000034014078010020FEE70000C9
:101760002DE9F0413C212548FFF782FB234C2068FE
:10177000C16841F00101C1603C212148FFF778FBBD
:101780001F4D2868C16841F00101C1603C211D481E
:10179000FFF76EFB1B4E3068C16841F00101C1606C
:1017A0003C211948FFF764FB174F3868C16841F0C6
:1017B0000101C1601548FFF717FA3C211448FFF7F3
:1017C00023FD216842F2107048622968486231683E
:1017D00048623968486200210E4B084601EB8102DD
:1017E000491C43F8220003EB820204295060108157
:1017F000D0601074F2DBBDE8F08100001000002022
:1018000058000020A00000207801002030010020B6
:10181000E8000020C0010020FEE770477047FEF797
:101820005FBE30B58FB028216846FEF7EFFC14216B
:101830000AA8FEF7EBFC01210804CDE90010002402
:10184000029402250491CDE907504FF4E01009906D
:101850006846FEF799FF08B172B6FEE70F20CDE9A2
:101860000A054FF48060CDE90C4002210AA80E94CD
:10187000FEF7CEFE002801D072B6FEE70FB030BDF5
:10188000704700000148FFF73BBB0000100000203C
:101890000148FFF735BB0000580000200148FFF762
:1018A0002FBB0000A00000200148FFF729BB00006B
:1018B000300100200148FFF723BB00007801002021
:1018C000F0B502681C4B1D4D1D4E1E4F1E4C4FF0B7
:1018D000804C984209D0A04207D0604505D0A8426C
:1018E00003D0B04201D0B84204D122F0700E4A6851
:1018F00042EA0E02984209D0A04207D0604505D0C6
:10190000A84203D0B04201D0B84203D122F44075BE
:10191000CA682A434D6922F080022A4302608A681D
:10192000C2620A688262984201D0A04201D109696C
:10193000016301214161F0BD002C01400004004021
:1019400000080040000C00400034014010B501F0D8
:101950001F030121046A99408C430462016A9A4082
:101960001143016210BD0000F0B5036A026A22F063
:101970000102026242688469124E24F073050C6809
:101980002C4323F002058B682B430D4DA84201D058
:10199000B04205D123F00807CB683B4323F0040392
:1019A000A84201D0B04205D14D6922F440721543DE
:1019B0008A692A4342608461496841630362F0BDD9
:1019C000002C014000340140F0B5026A036A23F0A4
:1019D00010030362436884690D6824F4E64444EA12
:1019E00005248D6822F0200242EA05120F4D104EA8
:1019F000A84201D0B04206D1CF6822F0800242EA6C
:101A0000071222F04002A84201D0B04207D14D692E
:101A100023F4406343EA85038D6943EA8503436009
:101A20008461496881630262F0BD0000002C0140BE
:101A300000340140F0B5026A036A23F48073036244
:101A40004368C46922F4007224F073050C68124ED6
:101A50002C438D6842EA05220E4DA84201D0B042C7
:101A600006D1CF6822F4006242EA072222F48062A3
:101A7000A84201D0B04207D14D6923F4405343EA54
:101A800005138D6943EA05134360C4614968C16366
:101A90000262F0BD002C01400034014030B5046A00
:101AA000026A22F4805202624268C3690D6823F41C
:101AB000E64343EA05238D6824F4005444EA0534E0
:101AC000084DA84202D0084DA84204D14D6922F425
:101AD000804242EA85124260C3614968016404623F
:101AE00030BD0000002C014000340140FEE7090732
:101AF000090E002804DB00F1E02080F80014704794
:101B000000F00F0000F1E02080F8141D7047000085
:101B1000FEF7EEFCFFF785FEFFF7ACFCFFF7D0FC0D
:101B2000FFF704FDFFF738FDFFF76CFDFFF7DEFD63
:101B3000FFF7B8FDFFF714FE3C210448FFF764FBF4
:101B400002494FF47A6009680864FEE7E800002063
:101B50004FF47F0C1CEAD0121EBF1CEAD11392EA8C
:101B60000C0F93EA0C0F00F0858090EA010F48BF3C
:101B700042F4807240F4000C41F400002CF07F41EC
:101B800020F07F4000B58142A2EB03020FF2081C57
:101B9000ACEB504EC0F100009EF800E04FEA4E0E54
:101BA00000FB0EFC38BF49004FEA2C1C02F5FA027C
:101BB0000CFB0EF34FEACE1E4FEA112C4FEAC12167
:101BC0000EEB635E42EB22420EFB0CFC4FEA1C5311
:101BD00000FB03114FEA112C4FEA01310EFB0CFC04
:101BE0004FEADC4C00FB0C11C14228BF09184CEB3A
:101BF00003335DF804EB10EB410143EBC250B2F547
:101C00007C0F38BF704729D512F0F00F1CBF00F1D0
:101C1000C04000F000407047008182838485868741
:101C200088898B8C8D8E8F919293959697999A9C9B
:101C30009D9FA0A2A3A5A7A8AAACAEB0B2B3B5B70A
:101C4000B9BCBEC0C2C5C7C9CCCED1D4D7D9DCDFE0
:101C5000E2E6E9ECF0F3F7FAFE0000004FEA400C90
:101C60000CF1807CBCF17E4F28BF7047B0F1C040C2
:101C700000F00FB990EA010F0CEAD11348BF42F40B
:101C80008072624538BF634507D213F47F0F16D0C8
:101C900080EA010000F00040704710B500F0B3F892
:101CA000097EFC3E00F005B880EA010000F000402B
:101CB000704780EA010000F0004000F0EAB812F43A
:101CC0007F0F04BF0248704780EA010000F0E1B8CE
:101CD0000000C07F10F0004148BF4042B0FA80F3DE
:101CE00010FA03F2C3F19D030BD051EAC35101EB8B
:101CF0001220530638BF704700F1010008BF20F0E2
:101D0000010070474FF47F0C1CEAD0121EBF1CEA82
:101D1000D11392EA0C0F93EA0C0F00F0478090EA7F
:101D2000010F48BF42F480724FF0004C4CEA002093
:101D30004CEA012102EB0302A0FB0113A2F5000211
:101D4000002918BF43F001035B0028BF4FEA3303AB
:101D500042EB22425FEA132C4CEBC2502EBFBCEB8D
:101D6000436FB2F57C0F70474FEA036CBCF1004F34
:101D700008BF20F00100B2F57C0F38BF70470BD5CB
:101D800082F0FF0212F5803FC8BF704700F1C040EB
:101D9000D8BF00F00040704700F5000C5FEA4C0C23
:101DA00048BF7047B0F1C04000F073B890EA010F2F
:101DB0000CEAD11348BF42F48072624538BF6345D4
:101DC00004D280EA010000F00040704710B500F036
:101DD0001AF800BF8900013E00F007B800F009B80A
:101DE0005FEA410C5FEA1C6C08D080EA010000F059
:101DF00050B85FEA400C5FEA1C6CF6D14FF000402F
:101E0000A0F5800070470EF1020E2EF0030E5EF872
:101E1000044B244204D44FEA4102B2F17F4F11D85F
:101E20004FEA4003B3F17F4F0CD80ED14FEAD07C7C
:101E3000B2F17F4F0CEB4C0C0CF1020C08BF4CEBD9
:101E4000D17C04E04FF0080C01E04FEAD17C0CEBB0
:101E50004C0324FA03F404F00704B4F1040C06D292
:101E60000EEB840CBDE810404CF0010C6047DFE83D
:101E70000CF0070802024FF00040A0F5800010BDF2
:101E80000846420018BFD2F1807288BF00F00040BF
:101E900010BDFF2141EAD050C00570470102020386
:101EA0000405060708090A0B0C0D0E0F10100000A0
:101EB00000000000000001020304060708090000FA
:101EC000E01E000800000020100000006C01000867
:101ED000F01E0008100000206008000088010008C3
:101EE0000100000010000000000000000024F400C9
:0400000508000131BD
:00000001FF
